:020000040800F2
:1000000000000220150E00082D0D0008390D000813
:100010003F0D0008450D00084B0D000800000000D2
:10002000000000000000000000000000510D00086A
:100030005D0D000800000000690D0008750D000846
:10004000650E0008650E0008650E0008650E0008C4
:10005000650E0008650E0008810D0008650E000899
:10006000650E0008650E0008650E0008650E0008A4
:10007000650E0008650E0008650E0008650E000894
:10008000650E0008650E0008650E000800000000FF
:10009000000000000000000000000000650E0008E5
:1000A000650E0008650E0008650E0008650E000864
:1000B000650E0008650E0008650E0008650E000854
:1000C000650E0008650E0008650E0008650E000844
:1000D000650E0008650E0008650E000800000000AF
:1000E000650E0008650E0008650E0008000000009F
:1000F000000000000000000000000000650E000885
:1001000000000000650E0008650E0008650E00087E
:1001100000000000000000000000000000000000DF
:10012000650E0008650E0008650E0008650E0008E3
:10013000650E000800000000000000000000000044
:10014000000000000000000000000000910D000809
:10015000650E0008650E0008650E0008650E0008B3
:10016000650E0008650E0008000000000000000099
:10017000000000000000000000000000000000007F
:1001800000000000650E00080000000000000000F4
:08019000650E0008650E000871
:1001980053B94AB9002908BF00281CBF4FF0FF31E6
:1001A8004FF0FF3000F00CB8ADF1080C6DE904CE4B
:1001B80007F00EFADDF804E0DDE9022304B0704729
:1001C800704700BF10B5054C237833B9044B13B101
:1001D8000448AFF300800123237010BD8C08002071
:1001E80000000000D882000808B5034B1BB1034982
:1001F8000348AFF3008008BD00000000900800200D
:10020800D882000880B582B000AF0346FB80FB8827
:10021800012B52D12A4B1B78DBB2002B08D000F0FF
:1002280083FE0246274B1B68D31A632B08D844E089
:1002380000F07AFE0246234B1B68D31AC72B3BD922
:100248001F4B1B78DBB20133DAB21D4B1A7000F07A
:100258006BFE02461B4B1B68D31AB3F5167F0AD9EF
:10026800174B1B78DBB2012B8CBF01230023DBB2B9
:100278001A46134B1A7000F057FE0346114A1360D2
:100288000F4B1B78DBB2012B0AD90D4B00221A70D9
:100298000D4B1B78DBB20133DAB20B4B1A700CE052
:1002A8000A4B1B78DBB2002B0CBF01230023DBB207
:1002B8001A46064B1A7000E000BF0837BD4680BDDD
:1002C800E5090020F4090020E6090020E4090020DF
:1002D80080B584B000AF78607B68002B02D0454BB6
:1002E8001B6801E0444B1B68444A13607B68002B81
:1002F80002D0414B1B6801E03E4B1B68404A13602B
:100308003E4B1B683F4A52F823309BB201221946E4
:100318003D4801F0C7F83A4B1B683A4A52F8233077
:100328009BB200221946384801F0BCF80023FB6054
:1003380023E0334B1B68334A52F823309BB2012227
:100348001946314801F0AEF8FB68C3F10A031846B4
:1003580000F0F4FD2A4B1B682A4A52F823309BB25E
:1003680000221946284801F09DF8FB685B001846F2
:1003780000F0E4FDFB680133FB60FB68092BD8DD66
:100388007B68002B16D01B4B1B68032B03D0194B23
:100398001B68013300E00023164A1360164B1B68E4
:1003A800032B03D0144B1B68013300E00023124ACF
:1003B800136015E00F4B1B68002B03D00D4B1B6817
:1003C800013B00E003230B4A13600B4B1B68002B17
:1003D80003D0094B1B68013B00E00323064A136066
:1003E8000A4B1B68184600F0A9FD00BF1037BD4630
:1003F80080BD00BF14000020E8090020EC0900209F
:10040800F009002004000020000C02400000002039
:1004180080B584B000AF0023FB6048E00023BB60D8
:100428003DE001224FF480514C4801F03BF8012295
:100438004FF40051494801F035F801224FF480414A
:10044800464801F02FF801224FF40041434801F0DB
:1004580029F8FB685B00184600F070FD00224FF495
:1004680080513E4801F01EF800224FF400513B48ED
:1004780001F018F800224FF48041384801F012F8D2
:1004880000224FF40041354801F00CF8FB68C3F135
:100498000A03184600F052FDBB680133BB60304BBD
:1004A8001B68BA689A42BCDBFB680133FB602D4BC2
:1004B8001B68FA689A42B1DB00237B6046E00023A0
:1004C8003B603DE001224FF48051244800F0EAFFF0
:1004D80001224FF40051214800F0E4FF01224FF4BB
:1004E80080411E4800F0DEFF01224FF400411B4806
:1004F80000F0D8FF7B68C3F10A03184600F01EFD20
:1005080000224FF48051154800F0CCFF00224FF430
:100518000051124800F0C6FF00224FF480410F48F6
:1005280000F0C0FF00224FF400410C4800F0BAFF71
:100538007B685B00184600F001FD3B6801333B60B7
:100548003B68022BBEDD7B6801337B607B68092B2F
:10055800B5DD00BF00BF1037BD4680BD000C0240AE
:100568001C0000201800002080B500AF00F078FCC7
:1005780000F024F800F068F900F0A4F800F0D0F8D2
:1005880000F0FCF800F02AF906F01AFD06F03EFD2E
:10059800084B1B78DBB2002B04D0FFF739FF054B63
:1005A80000221A70044B1B78DBB21846FFF790FE46
:1005B800ECE700BFE6090020E409002080B59AB006
:1005C80000AF07F1380330220021184607F066FC17
:1005D80007F1240300221A605A609A60DA601A61EF
:1005E80007F10C0300221A605A609A60DA601A61F7
:1005F8005A610023BB60314B1B6C304A43F0805377
:1006080013642E4B1B6C03F08053BB60BB68002344
:100618007B602B4B1B682A4A43F440431360284BEA
:100628001B6803F440437B607B680123BB634FF482
:10063800A023FB6302233B654FF480037B650423FF
:10064800BB65C023FB6504233B6608237B6607F173
:100658003803184603F09CF90346002B01D000F03C
:10066800D7F90F237B620223BB620023FB624FF49E
:10067800A0533B6300237B6307F12403032118463F
:1006880003F0F4FB0346002B01D000F0C1F901236D
:10069800FB60C8237B6105233B610223BB6107F133
:1006A8000C03184603F0F2FD0346002B01D000F0BE
:1006B800AFF900BF6837BD4680BD00BF00380240B3
:1006C8000070004080B500AF124B134A1A60114BFE
:1006D800124A5A600F4B00229A600E4B0022DA60D1
:1006E8000C4B4FF480421A610A4B00225A61094BA5
:1006F80000229A61074B0022DA61064B00221A6237
:10070800044802F067FB0346002B01D000F080F993
:1007180000BF80BDA808002000540040A08601004A
:1007280080B500AF124B134A1A60114B4FF4007298
:100738005A600F4B00229A600D4B0022DA600C4B76
:1007480000221A610A4B0C4A5A61094B00229A612D
:10075800074B0022DA61064B01221A62044802F0B4
:100768007DFC0346002B01D000F052F900BF80BD8C
:10077800FC080020003800400077010080B500AF79
:10078800134B144A1A60124B4FF400725A60104B04
:1007980000229A600E4B0022DA600D4B4FF4007273
:1007A8001A610B4B0C4A5A61094B00229A61084B9B
:1007B8000022DA61064B00221A62054802F04EFC5C
:1007C8000346002B01D000F023F900BF80BD00BF15
:1007D80044090020003C00400077010080B500AFCC
:1007E800174B184A1A60164B4FF482725A60144B12
:1007F80000229A60124B0022DA60114B00221A6123
:100808000F4B00225A610E4B4FF400729A610C4B49
:100818000022DA610A4B00221A62094B00225A624E
:10082800074B00229A62064B0A22DA62044803F058
:100838007BFE0346002B01D000F0EAF800BF80BD24
:100848008C0900200030014080B58CB000AF07F162
:100858001C0300221A605A609A60DA601A61002349
:10086800BB61644B1B6B634A43F010031363614B1A
:100878001B6B03F01003BB61BB6900237B615D4BFD
:100888001B6B5C4A43F0040313635A4B1B6B03F066
:1008980004037B617B6900233B61564B1B6B554A04
:1008A80043F080031363534B1B6B03F080033B61DE
:1008B8003B690023FB604F4B1B6B4E4A43F001031F
:1008C80013634C4B1B6B03F00103FB60FB680023B5
:1008D800BB60484B1B6B474A43F002031363454B0D
:1008E8001B6B03F00203BB60BB6800237B60414BBA
:1008F8001B6B404A43F0080313633E4B1B6B03F02A
:1009080008037B607B68002208213B4800F0CAFD91
:1009180001220121394800F0C5FD00224FF21001E3
:10092800374800F0BFFD0423FB6100233B6200232E
:100938007B6207F11C0319462F4800F031FC08239D
:10094800FB6101233B6200237B620023BB6207F14A
:100958001C031946284800F023FC3223FB61294B6D
:100968003B6200237B6207F11C031946224800F012
:1009780017FC0123FB6101233B6200237B620023F8
:10098800BB6207F11C0319461C4800F009FC01234F
:10099800FB611D4B3B6200237B6207F11C03194678
:1009A8001A4800F0FDFB4FF21003FB6101233B6284
:1009B80000237B620023BB6207F11C031946104821
:1009C80000F0EEFB2023FB6100233B6200237B62E7
:1009D80007F11C0319460A4800F0E2FB0022002137
:1009E800062000F0A6FB062000F0BFFB00BF303752
:1009F800BD4680BD00380240001002400008024099
:100A0800000C02400000121000001110000002400B
:100A180080B400AF00BFBD4680BC704780B483B0CF
:100A280000AF00237B600F4B5B6C0E4A43F480439E
:100A380053640C4B5B6C03F480437B607B6800233E
:100A48003B60084B1B6C074A43F080531364054B0B
:100A58001B6C03F080533B603B6800BF0C37BD46FE
:100A680080BC70470038024080B58AB000AF78601B
:100A780007F1140300221A605A609A60DA601A615A
:100A88007B681B68194A93422CD100233B61184BA1
:100A98001B6B174A43F002031363154B1B6B03F0E0
:100AA80002033B613B694FF410737B611223BB6106
:100AB8000123FB6100233B6204237B6207F11403DB
:100AC80019460C4800F06CFB0023FB60084B1B6CBC
:100AD800074A43F400131364054B1B6C03F400131B
:100AE800FB60FB6800BF2837BD4680BD005400404E
:100AF800003802400004024080B58EB000AF786034
:100B080007F1240300221A605A609A60DA601A61B9
:100B18007B681B68594A93425BD100233B62584B60
:100B28001B6C574A43F480431364554B1B6C03F406
:100B380080433B623B6A0023FB61514B1B6B504A6D
:100B480043F0040313634E4B1B6B03F00403FB6178
:100B5800FB690023BB614A4B1B6B494A43F0020304
:100B68001363474B1B6B03F00203BB61BB69042390
:100B78007B620223BB620023FB6200233B630623E4
:100B88007B6307F1240319463E4800F009FB08235C
:100B98007B620223BB620023FB6200233B630523C5
:100BA8007B6307F124031946364800F0F9FA4FF43D
:100BB800A0537B620223BB620023FB6200233B63DA
:100BC80005237B6307F1240319462F4800F0E8FA50
:100BD8004FE07B681B682D4A93424AD100237B6112
:100BE800274B1B6C264A43F400431364244B1B6CAD
:100BF80003F400437B617B6900233B61204B1B6B43
:100C08001F4A43F0010313631D4B1B6B03F00103E1
:100C18003B613B690023FB60194B1B6B184A43F08F
:100C280004031363164B1B6B03F00403FB60FB68A0
:100C380010237B620223BB620023FB6200233B6319
:100C480006237B6307F124031946114800F0A8FA2C
:100C58004FF4A4537B620223BB620023FB62002390
:100C68003B6306237B6307F124031946054800F01C
:100C780097FA00BF3837BD4680BD00BF0038004036
:100C8800003802400008024000040240003C0040D6
:100C98000000024080B58AB000AF786007F1140305
:100CA80000221A605A609A60DA601A617B681B68D1
:100CB800194A93422BD100233B61184B5B6C174AAE
:100CC80043F480535364154B5B6C03F480533B61CE
:100CD8003B690023FB60114B1B6B104A43F0010377
:100CE80013630E4B1B6B03F00103FB60FB68E023EF
:100CF8007B610223BB610023FB6103233B62052365
:100D08007B6207F114031946054800F049FA00BF51
:100D18002837BD4680BD00BF003001400038024082
:100D28000000024080B400AF00BFBD4680BC7047E1
:100D380080B400AFFEE780B400AFFEE780B400AF38
:100D4800FEE780B400AFFEE780B400AF00BFBD4649
:100D580080BC704780B400AF00BFBD4680BC704700
:100D680080B400AF00BFBD4680BC704780B500AFFF
:100D780000F0C8F800BF80BD80B500AF012000F0CA
:100D8800A9FB00BF80BD000080B500AF024800F09D
:100D98003FFE00BF80BD00BFD40D002080B584B0E9
:100DA80000AF7860114B1B68002B02D10F4B104A23
:100DB8001A600E4B1B68FB600C4B1A687B68134467
:100DC8006A46934207D906F05DFD03460C221A6075
:100DD8004FF0FF3306E0054B1A687B681344034A5B
:100DE8001360FB6818461037BD4680BDF80900201F
:100DF800F810002080B400AF034B4FF000629A60F7
:100E080000BFBD4680BC704700ED00E0DFF834D07D
:100E1800002103E00C4B5B58435004310B480C4B4A
:100E280042189A42F6D30B4A02E0002342F8043BE8
:100E3800094B9A42F9D3FFF7DDFF06F03FFDFFF7B4
:100E480093FB704700000220248300080000002064
:100E58008C0800208C080020F4100020FEE7000019
:100E680080B500AF0E4B1B680D4A43F40073136046
:100E78000B4B1B680A4A43F480631360084B1B68DA
:100E8800074A43F480731360032000F047F90020F9
:100E980000F008F8FFF7C2FD0023184680BD00BF28
:100EA800003C024080B582B000AF7860124B1A68EF
:100EB800124B1B7819464FF47A73B3FBF1F3B2FB6C
:100EC800F3F3184600F05FF90346002B01D0012325
:100ED8000EE07B680F2B0AD8002279684FF0FF30AC
:100EE80000F027F9064A7B681360002300E001231D
:100EF80018460837BD4680BD200000202800002085
:100F08002400002080B400AF054B1B781A46054B1F
:100F18001B681344034A136000BFBD4680BC70477A
:100F280028000020FC09002080B400AF024B1B6899
:100F38001846BD4680BC7047FC09002080B584B0C7
:100F480000AF7860FFF7F0FFB8607B68FB60FB6874
:100F5800B3F1FF3F05D00A4B1B781A46FB681344D0
:100F6800FB6000BFFFF7E0FF0246BB68D31AFA68D0
:100F78009A42F7D800BF00BF1037BD4680BD00BFFA
:100F88002800002080B485B000AF78607B6803F04B
:100F98000703FB600C4BDB68BB60BA684FF6FF03C6
:100FA8001340BB60FB681A02BB68134343F0BF637E
:100FB80043F40033BB60044ABB68D36000BF1437F6
:100FC800BD4680BC704700BF00ED00E080B400AFB4
:100FD800044BDB681B0A03F007031846BD4680BCB8
:100FE800704700BF00ED00E080B483B000AF034657
:100FF800FB7197F90730002B0BDBFB7903F01F021D
:10100800064997F907305B09012000FA02F241F816
:10101800232000BF0C37BD4680BC704700E100E0CC
:1010280080B483B000AF03463960FB7197F907308D
:10103800002B0ADB3B68DAB20C4997F9073012013A
:10104800D2B20B4483F800230AE03B68DAB20849BD
:10105800FB7903F00F03043B1201D2B20B441A765A
:1010680000BF0C37BD4680BC704700BF00E100E000
:1010780000ED00E080B489B000AFF860B9607A6034
:10108800FB6803F00703FB61FB69C3F10703042B4B
:1010980028BF0423BB61FB690433062B02D9FB6913
:1010A800033B00E000237B614FF0FF32BB6902FA8B
:1010B80003F3DA43BB681A407B699A404FF0FF316B
:1010C8007B6901FA03F3D9437B680B401343184645
:1010D8002437BD4680BC704780B582B000AF7860C9
:1010E8007B68013BB3F1807F01D301230FE00A4AFB
:1010F8007B68013B53600F214FF0FF30FFF790FFF3
:10110800054B00229A60044B07221A6000231846F8
:101118000837BD4680BD00BF10E000E080B582B052
:1011280000AF78607868FFF72DFF00BF0837BD462D
:1011380080BD80B586B000AF0346B9607A60FB73A6
:1011480000237B61FFF742FF78617A68B9687869A4
:10115800FFF790FF024697F90F3011461846FFF740
:101168005FFF00BF1837BD4680BD80B582B000AFB5
:101178000346FB7197F907301846FFF735FF00BFA4
:101188000837BD4680BD80B582B000AF786078680A
:10119800FFF7A2FF034618460837BD4680BD00008A
:1011A80080B489B000AF7860396000237B61002388
:1011B8003B610023BB610023FB6159E10122FB690C
:1011C80002FA03F37B613B681B687A6913403B6151
:1011D8003A697B699A4240F048813B685B68012B19
:1011E8000BD03B685B68022B07D03B685B68112B10
:1011F80003D03B685B68122B30D17B689B68BB616E
:10120800FB695B00032202FA03F3DB43BA6913406C
:10121800BB613B68DA68FB695B0002FA03F3BA69F1
:101228001343BB617B68BA699A607B685B68BB6182
:101238000122FB6902FA03F3DB43BA691340BB617D
:101248003B685B681B0903F00102FB6902FA03F3C0
:10125800BA691343BB617B68BA695A607B68DB680B
:10126800BB61FB695B00032202FA03F3DB43BA6943
:101278001340BB613B689A68FB695B0002FA03F3A1
:10128800BA691343BB617B68BA69DA603B685B681B
:10129800022B03D03B685B68122B23D1FB69DA0869
:1012A8007B68083253F82230BB61FB6903F00703FF
:1012B8009B000F2202FA03F3DB43BA691340BB61B8
:1012C8003B681A69FB6903F007039B0002FA03F302
:1012D800BA691343BB61FB69DA087B680832B969EC
:1012E80043F822107B681B68BB61FB695B00032223
:1012F80002FA03F3DB43BA691340BB613B685B68DE
:1013080003F00302FB695B0002FA03F3BA691343B3
:10131800BB617B68BA691A603B685B6803F08053FD
:10132800002B00F0A2800023FB60564B5B6C554AF3
:1013380043F480435364534B5B6C03F48043FB607A
:10134800FB68514AFB699B08023352F82330BB61A2
:10135800FB6903F003039B000F2202FA03F3DB434C
:10136800BA691340BB617B68484A934219D07B68CD
:10137800474A934213D07B68464A93420DD07B6814
:10138800454A934207D07B68444A934201D10423DB
:1013980008E0072306E0032304E0022302E0012318
:1013A80000E00023FA6902F0030292009340BA6950
:1013B8001343BB613449FB699B080233BA6941F89E
:1013C8002320374B1B68BB613B69DB43BA69134079
:1013D800BB613B685B6803F48033002B03D0BA69B8
:1013E8003B691343BB612E4ABB6913602C4B5B6896
:1013F800BB613B69DB43BA691340BB613B685B680F
:1014080003F40033002B03D0BA693B691343BB6173
:10141800234ABB695360224B9B68BB613B69DB4332
:10142800BA691340BB613B685B6803F48013002B07
:1014380003D0BA693B691343BB61194ABB6993601E
:10144800174BDB68BB613B69DB43BA691340BB617F
:101458003B685B6803F40013002B03D0BA693B694F
:101468001343BB610E4ABB69D360FB690133FB615F
:10147800FB690F2B7FF6A2AE00BF00BF2437BD4625
:1014880080BC70470038024000380140000002402C
:101498000004024000080240000C02400010024014
:1014A800003C014080B483B000AF78600B467B807D
:1014B80013467B707B78002B03D07A887B689A610F
:1014C80003E07B881A047B689A6100BF0C37BD462D
:1014D80080BC704780B582B000AF0346FB80084BE4
:1014E8005A69FB881340002B06D0054AFB885361D4
:1014F800FB881846FEF786FE00BF0837BD4680BD4C
:10150800003C0140F0B58FB00AAF78607B68002BD3
:1015180001D1012354E07B681B68FB607B6893F86A
:10152800B932DBB2002B06D17B68002283F8B822DF
:10153800786805F0A1FD7B68032283F8B922FB686F
:10154800DB6B03F48073002B02D17B6800221A61E5
:101558007B681B68184603F0BCF87B681B683B6017
:101568007E686D4606F110040FCC0FC50FCC0FC571
:1015780094E8030085E80300331D0ECB386803F0B8
:1015880037F87B681B680121184603F0B2F87B68BE
:101598001B683B607E686D4606F110040FCC0FC5D2
:1015A8000FCC0FC594E8030085E80300331D0ECB6C
:1015B800386803F0BBF97B68012283F8B92200235D
:1015C80018461437BD46F0BD90B589B004AF7860B1
:1015D800084611461A460346FB700B46BB70134675
:1015E8007B707B6893F8B832012B01D102237FE02E
:1015F8007B68012283F8B822FA78796813469B0041
:101608001344DB000B443D3300221A70FA787968E2
:1016180013469B001344DB000B4438337A781A7066
:10162800FA78796813469B001344DB000B44403377
:101638003A8D1A80FA78796813469B001344DB00C8
:101648000B443933FA781A70FA78796813469B0094
:101658001344DB000B443F3397F824201A70FA78C0
:10166800BB7803F07F03D8B2796813469B00134414
:10167800DB000B443A3302461A7097F90230002B0C
:101688000ADAFA78796813469B001344DB000B44A6
:101698003B3301221A7009E0FA78796813469B00F7
:1016A8001344DB000B443B3300221A70FA78796844
:1016B80013469B001344DB000B443C3397F820206F
:1016C8001A707B6818687C78BA78F9783B8D029331
:1016D80097F82430019397F820300093234603F0BD
:1016E800A3FA0346FB737B68002283F8B822FB7BCE
:1016F80018461437BD4690BD80B584B000AF7860F9
:101708000B46FB700023FB737B6893F8B832012B00
:1017180001D102230FE07B68012283F8B8227B689D
:101728001B68FA781146184603F0D8FC7B6800223B
:1017380083F8B822FB7B18461037BD4680BD0000F1
:1017480080B582B000AF7860084611461A46034655
:10175800FB700B46BB7013467B70FA7879681346AA
:101768009B001344DB000B443B33BA781A70FA78B9
:10177800796813469B001344DB000B443F337A78A7
:101788001A703B7C002B0AD1FA78796813469B00C3
:101798001344DB000B44423303221A7009E0FA7841
:1017A800796813469B001344DB000B444233022242
:1017B8001A707B78032B00F2D68001A252F823F02E
:1017C800D91700085919000845180008CF1800084B
:1017D8003B7C012B40F0C980BB78002B40F0C580D2
:1017E8003B8B002B09D1FA78796813469B00134488
:1017F800DB000B44513301221A70FA7879681346DA
:101808009B001344DB000B4451331B78002B0AD197
:10181800FA78796813469B001344DB000B44423383
:1018280000221A70A1E0FA78796813469B001344E5
:10183800DB000B44423302221A7096E0BB78002B7F
:1018480020D1FA78796813469B001344DB000B44D7
:1018580051331B78002B0AD1FA78796813469B001C
:101868001344DB000B44423300221A707EE0FA78FE
:10187800796813469B001344DB000B444233022271
:101888001A7073E0FA78796813469B001344DB00FA
:101898000B4450331B78002B0AD1FA787968134629
:1018A8009B001344DB000B44423300221A705DE0B6
:1018B800FA78796813469B001344DB000B444233E3
:1018C80002221A7052E0BB78002B20D1FA7879688E
:1018D80013469B001344DB000B4451331B78002B49
:1018E8000AD1FA78796813469B001344DB000B444D
:1018F800423300221A7039E0FA78796813469B005F
:101908001344DB000B44423302221A702EE0FA78AB
:10191800796813469B001344DB000B4450331B7853
:10192800002B0AD1FA78796813469B001344DB0030
:101938000B44423300221A7018E0FA78796813468B
:101948009B001344DB000B44423302221A700DE063
:10195800FA78796813469B001344DB000B44423342
:1019680000221A7002E000BF00E000BFFA78796830
:1019780013469B001344DB000B4444337A691A6016
:10198800FA78398B786813469B001344DB000344CC
:1019980048331960FA78796813469B001344DB00D2
:1019A8000B445C3300221A70FA78796813469B005E
:1019B8001344DB000B444C3300221A60FA78796830
:1019C80013469B001344DB000B443933FA781A7032
:1019D800FA78796813469B001344DB000B445D33A7
:1019E80000221A707B681868FA7813469B00134423
:1019F800DB0038337A68D1187B681B69DBB21A467A
:101A080003F01AFA034618460837BD4680BD00BFE2
:101A180080B586B000AF78607B681B683B613B6926
:101A2800FB607B681B68184602F040FF0346012BE9
:101A380040F0F1807B681B68184602F025FF0346DA
:101A4800002B00F0E7807B681B68184602F01CFF3B
:101A5800034603F40013B3F5001F04D17B681B6829
:101A68004FF400125A617B681B68184602F00CFF9D
:101A7800034603F48013B3F5801F04D17B681B6809
:101A88004FF480125A617B681B68184602F0FCFE0E
:101A9800034603F08063B3F1806F04D17B681B6851
:101AA8004FF080625A617B681B68184602F0ECFEB2
:101AB800034603F00203022B03D17B681B68022252
:101AC8005A617B681B68184602F0DEFE034603F085
:101AD8000053B3F1005F17D1FB6803F588631B68F7
:101AE800FA6802F5886223F02E031360786805F01F
:101AF80041FB7B681B680121184602F0D3FF7B6815
:101B08001B684FF000525A617B681B68184602F048
:101B1800BBFE034603F08073B3F1807F02D178687F
:101B280001F0C8F87B681B68184602F0ADFE034652
:101B380003F00803082B06D1786805F0FFFA7B68E4
:101B48001B6808225A617B681B68184602F09CFED5
:101B5800034603F00073B3F1007F38D17B681B683C
:101B6800184603F0ABFAB86000237B6125E07B6977
:101B780003F00F03BA6822FA03F303F00103002B02
:101B880018D07B695A01FB68134403F5A0631B68EE
:101B980003F40043B3F5004F06D17B69DBB2194665
:101BA800786800F0CDF805E07B69DBB21946786803
:101BB80000F05DFC7B6901337B617B689B687A6917
:101BC8009A42D4D37B681B684FF000725A617B68D5
:101BD8001B68184602F058FE034603F01003102B4A
:101BE80001D1012300E00023002B14D07B681B687F
:101BF8009A697B681B6822F010029A61786800F085
:101C0800ABFF7B681B689A697B681B6842F010020F
:101C18009A6100E000BF1837BD4680BD80B582B02C
:101C280000AF78607B6893F8B832012B01D10223AA
:101C380013E07B68012283F8B8227B681B6818468A
:101C480002F037FD7B681B680121184602F08DFF02
:101C58007B68002283F8B822002318460837BD465F
:101C680080BD80B582B000AF78607B6893F8B832E9
:101C7800012B01D102230DE07B68012283F8B822F1
:101C88007B681B68184603F061FB7B68002283F8B9
:101C9800B822002318460837BD4680BD80B582B0FB
:101CA80000AF78607B681B68184602F034FF034673
:101CB80018460837BD4680BD80B483B000AF786051
:101CC8000B46FB70FA78796813469B001344DB00D7
:101CD8000B445C331B7818460C37BD4680BC7047F4
:101CE80080B483B000AF78600B46FB70FA787968EF
:101CF80013469B001344DB000B444C331B68184607
:101D08000C37BD4680BC704780B582B000AF7860A4
:101D18007B681B68184602F076FF034618460837AA
:101D2800BD4680BD80B582B000AF78607B681B6817
:101D3800184602F052FF034618460837BD4680BDD4
:101D480080B586B000AF78600B46FB707B681B6877
:101D58007B617B693B61FB78FB60FB685A013B69EF
:101D6800134403F5A0639B6803F00403042B19D103
:101D7800FB685A013B69134403F5A0631A46042320
:101D88009360FB685A013B69134403F5A063DB6861
:101D9800FA6851013A690A4402F5A06243F0020365
:101DA800D36095E0FB685A013B69134403F5A063CF
:101DB8009B6803F02003202B09D1FB685A013B697B
:101DC800134403F5A0631A462023936080E0FB6860
:101DD8005A013B69134403F5A0639B6803F00803A9
:101DE800082B34D1FB685A013B69134403F5A063FF
:101DF800DB68FA6851013A690A4402F5A06243F0C7
:101E08000203D3607968FA6813469B001344DB0029
:101E18000B445D3305221A70FB685A013B69134471
:101E280003F5A0631A4610239360FB685A013B69C7
:101E3800134403F5A0631A46082393607B681B6864
:101E4800FA68D2B21146184603F048F940E0FB6838
:101E58005A013B69134403F5A0639B6803F480634C
:101E6800B3F5806F34D1FB685A013B69134403F51D
:101E7800A063DB68FA6851013A690A4402F5A06276
:101E880043F00203D3607B681B68FA68D2B211463C
:101E9800184603F023F9FB685A013B69134403F51C
:101EA800A0631A46102393607968FA6813469B006A
:101EB8001344DB000B445D3308221A70FB685A0197
:101EC8003B69134403F5A0631A464FF4806393609B
:101ED800FB685A013B69134403F5A0639B6803F44C
:101EE8000073B3F5007F22D1FB685A013B691344A4
:101EF80003F5A063DB68FA6851013A690A4402F500
:101F0800A06243F00203D3607B681B68FA68D2B210
:101F18001146184603F0E2F8FB685A013B6913447E
:101F280003F5A0631A464FF4007393609BE2FB68C5
:101F38005A013B69134403F5A0639B6803F001034E
:101F4800012B40F0C1807B681B69002B1BD079688E
:101F5800FA6813469B001344DB000B4448331A68A5
:101F6800FB6859013B690B4403F5A0631B69C3F384
:101F78001203D11A7868FA6813469B001344DB00F1
:101F880003444C3319607968FA6813469B0013447C
:101F9800DB000B445D3301221A707968FA68134636
:101FA8009B001344DB000B44583300221A60FB6883
:101FB8005A013B69134403F5A0631A460123936051
:101FC8007968FA6813469B001344DB000B443F33DF
:101FD8001B78002B0AD07968FA6813469B001344D3
:101FE800DB000B443F331B78022B21D1FB685A01DD
:101FF8003B69134403F5A063DB68FA6851013A6949
:102008000A4402F5A06243F00203D3607B681B68B0
:10201800FA68D2B21146184603F060F8FB685A0114
:102028003B69134403F5A0631A461023936034E018
:102038007968FA6813469B001344DB000B443F336E
:102048001B78032B29D1FB685A013B69134403F51C
:10205800A0631B68FA6851013A690A4402F5A06254
:1020680043F0005313607968FA6813469B001344E1
:10207800DB000B445C3301221A70FB68D8B2796824
:10208800FA6813469B001344DB000B445C331B784F
:102098001A460146786805F07BF87968FA681346AD
:1020A8009B001344DB000B4450331B7883F001037F
:1020B800D8B27968FA6813469B001344DB000B44D6
:1020C800503302461A70CEE1FB685A013B6913444B
:1020D80003F5A0639B6803F00203022B40F0F18034
:1020E800FB685A013B69134403F5A063DB68FA688F
:1020F80051013A690A4402F5A06223F00203D36051
:102108007968FA6813469B001344DB000B445D337F
:102118001B78012B0AD17968FA6813469B0013448F
:10212800DB000B445C3301221A70B0E07968FA686E
:1021380013469B001344DB000B445D331B78052BCF
:102148000AD17968FA6813469B001344DB000B44F4
:102158005C3305221A709AE07968FA6813469B0086
:102168001344DB000B445D331B78062B0AD07968D7
:10217800FA6813469B001344DB000B445D331B785D
:10218800082B56D17968FA6813469B001344DB0084
:102198000B4458331B68591C7868FA6813469B002F
:1021A8001344DB000344583319607968FA6813460E
:1021B8009B001344DB000B4458331B68032B14D9D2
:1021C8007968FA6813469B001344DB000B445833C4
:1021D80000221A607968FA6813469B001344DB00F2
:1021E8000B445C3304221A7009E07968FA681346D4
:1021F8009B001344DB000B445C3302221A70FB681B
:102208005A013B69134403F5A0631B68BB60BB68B4
:1022180023F08043BB60BB6843F00043BB60FB68AE
:102228005A013B69134403F5A0631A46BB6813605F
:102238002DE07968FA6813469B001344DB000B44D1
:102248005D331B78032B22D17968FA6813469B000B
:102258001344DB000B445C3302221A70FB685A01FA
:102268003B69134403F5A0631B68BB60BB6823F09C
:102278008043BB60BB6843F00043BB60FB685A0106
:102288003B69134403F5A0631A46BB681360FB68F7
:102298005A013B69134403F5A0631A46022393606D
:1022A800FB68D8B27968FA6813469B001344DB00D0
:1022B8000B445C331B781A460146786804F068FFC3
:1022C800D1E0FB685A013B69134403F5A0639B689E
:1022D80003F08003802B3ED1FB685A013B6913440D
:1022E80003F5A063DB68FA6851013A690A4402F50C
:1022F800A06243F00203D3607968FA6813469B0032
:102308001344DB000B4458331B68591C7868FA687F
:1023180013469B001344DB00034458331960796863
:10232800FA6813469B001344DB000B445D33062216
:102338001A707B681B68FA68D2B21146184602F018
:10234800CDFEFB685A013B69134403F5A0631A46A6
:102358008023936087E0FB685A013B69134403F5C7
:10236800A0639B6803F01003102B7CD17968FA688E
:1023780013469B001344DB000B443F331B78032BAD
:1023880022D17968FA6813469B001344DB000B449A
:10239800583300221A60FB685A013B69134403F55D
:1023A800A063DB68FA6851013A690A4402F5A06241
:1023B80043F00203D3607B681B68FA68D2B2114607
:1023C800184602F08BFE45E07968FA6813469B00D0
:1023D8001344DB000B443F331B78002B0AD0796889
:1023E800FA6813469B001344DB000B443F331B7809
:1023F800022B2FD17968FA6813469B001344DB003F
:102408000B44583300221A607B681B69002B21D1CA
:102418007968FA6813469B001344DB000B445D336C
:1024280003221A70FB685A013B69134403F5A06341
:10243800DB68FA6851013A690A4402F5A06243F080
:102448000203D3607B681B68FA68D2B2114618464B
:1024580002F044FEFB685A013B69134403F5A0638C
:102468001A461023936000BF1837BD4680BD80B55B
:1024780086B000AF78600B46FB707B681B687B6199
:102488007B693B61FB78FB60FB685A013B6913443D
:1024980003F5A0639B6803F00403042B19D1FB68C0
:1024A8005A013B69134403F5A0631A460423936059
:1024B800FB685A013B69134403F5A063DB68FA68BB
:1024C80051013A690A4402F5A06243F00203D3605D
:1024D8003EE3FB685A013B69134403F5A0639B681C
:1024E80003F02003202B41D1FB685A013B691344B8
:1024F80003F5A0631A46202393607968FA681346A7
:102508009B001344DB000B443D331B78012B40F048
:102518001F837968FA6813469B001344DB000B4459
:102528003D3300221A707968FA6813469B001344F9
:10253800DB000B445C3302221A70FB685A013B69CA
:10254800134403F5A063DB68FA6851013A690A4449
:1025580002F5A06243F00203D3607B681B68FA6847
:10256800D2B21146184602F0B9FDF1E2FB685A01F1
:102578003B69134403F5A0639B6803F04003402BB9
:102588003FD17968FA6813469B001344DB000B447B
:102598005D3304221A707968FA6813469B00134465
:1025A800DB000B443D3301221A707968FA68134640
:1025B8009B001344DB000B44583300221A60FB686D
:1025C8005A013B69134403F5A063DB68FA685101BB
:1025D8003A690A4402F5A06243F00203D3607B68BB
:1025E8001B68FA68D2B21146184602F077FDFB68FC
:1025F8005A013B69134403F5A0631A4640239360CC
:10260800A6E2FB685A013B69134403F5A0639B6883
:1026180003F40073B3F5007F22D1FB685A013B69CC
:10262800134403F5A063DB68FA6851013A690A4468
:1026380002F5A06243F00203D3607B681B68FA6866
:10264800D2B21146184602F049FDFB685A013B69AF
:10265800134403F5A0631A464FF40073936077E2BE
:10266800FB685A013B69134403F5A0639B6803F0B8
:102678000103012B35D17968FA6813469B0013448E
:10268800DB000B44583300221A60FB685A013B698F
:10269800134403F5A063DB68FA6851013A690A44F8
:1026A80002F5A06243F00203D3607B681B68FA68F6
:1026B800D2B21146184602F011FDFB685A013B6977
:1026C800134403F5A0631A46012393607968FA68F6
:1026D80013469B001344DB000B445D3301221A7040
:1026E80036E2FB685A013B69134403F5A0639B6813
:1026F80003F00803082B2BD1FB685A013B691344EC
:1027080003F5A0631A4608239360FB685A013B69E6
:10271800134403F5A063DB68FA6851013A690A4477
:1027280002F5A06243F00203D3607B681B68FA6875
:10273800D2B21146184602F0D1FC7968FA681346FD
:102748009B001344DB000B445D3305221A70FFE144
:10275800FB685A013B69134403F5A0639B6803F0C7
:102768001003102B55D17968FA6813469B0013445F
:10277800DB000B44583300221A607968FA68134664
:102788009B001344DB000B445D3303221A70796805
:10279800FA6813469B001344DB000B443D331B7857
:1027A800002B14D17968FA6813469B001344DB00A8
:1027B8000B443C331B78002B09D17968FA6813461F
:1027C8009B001344DB000B443D3301221A70FB6865
:1027D8005A013B69134403F5A063DB68FA685101A9
:1027E8003A690A4402F5A06243F00203D3607B68A9
:1027F8001B68FA68D2B21146184602F06FFCFB68F3
:102808005A013B69134403F5A0631A4610239360E9
:102818009EE1FB685A013B69134403F5A0639B687A
:1028280003F08003802B2BD1FB685A013B691344CA
:1028380003F5A063DB68FA6851013A690A4402F5B6
:10284800A06243F00203D3607B681B68FA68D2B2C7
:102858001146184602F042FC7968FA6813469B0054
:102868001344DB000B445D3306221A70FB685A01DF
:102878003B69134403F5A0631A468023936067E11C
:10288800FB685A013B69134403F5A0639B6803F492
:102898008063B3F5806F35D1FB685A013B691344F7
:1028A80003F5A063DB68FA6851013A690A4402F546
:1028B800A06243F00203D3607B681B68FA68D2B257
:1028C8001146184602F00AFCFB685A013B6913449A
:1028D80003F5A0631A4610239360FB685A013B690D
:1028E800134403F5A0631A464FF480639360796834
:1028F800FA6813469B001344DB000B445D3308223F
:102908001A7025E1FB685A013B69134403F5A0637B
:102918009B6803F00203022B40F01A81FB685A01FE
:102928003B69134403F5A063DB68FA6851013A690F
:102938000A4402F5A06223F00203D3607968FA68BA
:1029480013469B001344DB000B445D331B78012BBB
:1029580037D17968FA6813469B001344DB000B44AF
:102968005C3301221A707968FA6813469B00134495
:10297800DB000B443F331B78022B0BD07968FA68D5
:1029880013469B001344DB000B443F331B78032B97
:1029980040F0C5807968FA6813469B001344DB0051
:1029A8000B4451331B7883F00103D8B27968FA6875
:1029B80013469B001344DB000B44513302461A7044
:1029C800ADE07968FA6813469B001344DB000B44BA
:1029D8005D331B78032B0AD17968FA6813469B008C
:1029E8001344DB000B445C3302221A7097E07968C9
:1029F800FA6813469B001344DB000B445D331B78D5
:102A0800042B0AD17968FA6813469B001344DB004B
:102A18000B445C3302221A7081E07968FA68134625
:102A28009B001344DB000B445D331B78052B0AD154
:102A38007968FA6813469B001344DB000B445C3347
:102A480005221A706BE07968FA6813469B001344F4
:102A5800DB000B445D331B78062B0AD07968FA68D3
:102A680013469B001344DB000B445D331B78082B93
:102A780055D17968FA6813469B001344DB000B4470
:102A880058331B68591C7868FA6813469B0013442E
:102A9800DB000344583319607968FA6813469B00D1
:102AA8001344DB000B4458331B68032B14D9796893
:102AB800FA6813469B001344DB000B44583300228A
:102AC8001A607968FA6813469B001344DB000B44CC
:102AD8005C3304221A7009E07968FA6813469B008F
:102AE8001344DB000B445C3302221A70FB685A0162
:102AF8003B69134403F5A0631B68BB60BB6823F004
:102B08008043BB60BB6843F00043BB60FB685A016D
:102B18003B69134403F5A0631A46BB681360FB685E
:102B28005A013B69134403F5A0631A4602239360D4
:102B3800FB68D8B27968FA6813469B001344DB0037
:102B48000B445C331B781A460146786804F020FB76
:102B580000BF1837BD4680BD80B58AB000AF786029
:102B68007B681B687B627B6A3B627B681B681B6AAD
:102B7800FB61FB6903F00F03BB61FB695B0C03F0AE
:102B88000F037B61FB691B09C3F30A033B617B6984
:102B9800022B04D07B69052B00F0828083E03B691F
:102BA800002B7FD07968BA6913469B001344DB0079
:102BB8000B4444331B68002B74D07B681868796811
:102BC800BA6913469B001344DB000B4444331B686B
:102BD8003A6992B2194601F02FFE7968BA6913462C
:102BE8009B001344DB000B4444331A683B69D1183B
:102BF8007868BA6913469B001344DB0003444433E6
:102C080019607968BA6913469B001344DB000B44CA
:102C18004C331A683B69D1187868BA6913469B0027
:102C28001344DB0003444C331960BB695A013B6A07
:102C3800134403F5A0631A691D4B1340002B31D0D0
:102C4800BB695A013B6A134403F5A0631B68FB6028
:102C5800FB6823F08043FB60FB6843F00043FB60A4
:102C6800BB695A013B6A134403F5A0631A46FB6823
:102C780013607968BA6913469B001344DB000B4460
:102C880050331B7883F00103D8B27968BA691346C8
:102C98009B001344DB000B44503302461A7001E0DA
:102CA80000BF00E000BF00BF2837BD4680BD00BFA1
:102CB8000000F81F80B586B000AF78607B681B689D
:102CC8007B617B693B613B6903F588631B68FB603B
:102CD8003B6903F588631B68BB60BB6823F02E0360
:102CE800BB60FB6803F00203022B13D1FB6803F0FF
:102CF8000103012B0AD17B681B689A697B681B68F2
:102D080022F000529A61786804F026FABB6843F012
:102D18000203BB60FB6803F00803082B47D1BB68BC
:102D280043F00803BB60FB6803F00403042B29D1BC
:102D38007B689B69022B13D1FB6803F4C023B3F5AE
:102D4800802F06D17B681B680221184601F0AAFE75
:102D580011E07B681B680121184601F0A3FE0AE018
:102D68007B68DB68012B06D13B6903F580631A4653
:102D78004EF660235360786804F017FA786804F018
:102D8800EBF914E0786804F01EFA3B6903F58863F0
:102D98001B683A6902F5886223F02E0313607B688A
:102DA8001B689A697B681B6842F000529A61FB684D
:102DB80003F02003202B03D1BB6843F02003BB6042
:102DC8003B6903F588631A46BB68136000BF183770
:102DD800BD4680BD80B584B000AF78607B68002BAD
:102DE80001D101232BE17B6893F83D30DBB2002B46
:102DF80006D17B68002283F83C207868FDF734FE12
:102E08007B68242283F83D207B681B681A687B68EE
:102E18001B6822F001021A607B681B681A687B68CD
:102E28001B6842F400421A607B681B681A687B685A
:102E38001B6822F400421A6001F014FAF8607B68FB
:102E48005B68814A934207D8FB68804A934294BFE3
:102E580001230023DBB206E0FB687D4A934294BF5E
:102E680001230023DBB2002B01D00123E7E0FB683C
:102E7800784AA2FB03239B0CBB607B681B685B68DA
:102E880023F03F017B681B68BA680A435A607B6875
:102E98001B681B6A23F03F017B685B686A4A9342A0
:102EA80002D8BB68013309E0BB684FF4967202FB95
:102EB80003F3694AA2FB03239B0901337A6812686A
:102EC8000B4313627B681B68DB6923F44F4222F0D3
:102ED800FF027B685B685C498B4219D8FB68591E06
:102EE8007B685B685B00B1FBF3F3591C40F6FC732D
:102EF8000B40002B0AD0FB68591E7B685B685B009F
:102F0800B1FBF3F30133C3F30B0351E004234FE0A8
:102F18007B689B68002B11D1FB68581E7B68596839
:102F28000B465B000B44B0FBF3F30133C3F30B0315
:102F3800002B0CBF01230023DBB212E0FB68581EF4
:102F48007B6859680B469B000B4499000B44B0FB07
:102F5800F3F30133C3F30B03002B0CBF012300234E
:102F6800DBB2002B01D0012322E07B689B68002B99
:102F78000ED1FB68581E7B6859680B465B000B44F2
:102F8800B0FBF3F30133C3F30B0343F400430FE047
:102F9800FB68581E7B6859680B469B000B449900D8
:102FA8000B44B0FBF3F30133C3F30B0343F4404387
:102FB800796809681343CB617B681B681B6823F039
:102FC800C0017B68DA697B681B6A1A437B681B68E7
:102FD8000A431A607B681B689B6823F4034323F049
:102FE800FF037A6811697A68D26811437A681268AF
:102FF8000B4393607B681B68DB6823F0FF017B68E9
:103008005A697B689B691A437B681B680A43DA60C4
:103018007B681B681A687B681B6842F001021A60AB
:103028007B6800221A647B68202283F83D207B6835
:1030380000221A637B68002283F83E20002318468A
:103048001037BD4680BD00BFA08601007F841E00EA
:10305800FF083D0083DE1B43D34D621080B588B066
:1030680000AF78607B68002B01D1012328E17B68E1
:1030780093F84130DBB2002B09D17B68002283F83A
:1030880040207B68904A5A637868FDF735FD7B6875
:10309800022283F841207B681B68DB697A68126822
:1030A80023F47B6323F00F03D3617B681B68022240
:1030B8001A627B685B69022B60D07B68DB68002B37
:1030C80002D110237B6101E020237B617B689B6830
:1030D800202B02D87B695B007B61012001F0C6F9D7
:1030E800F8607B681B69B3F5007F25D17B68DB68D6
:1030F800002B10D07B699B00FA68B2FBF3F21346F1
:103108009B0013445B001A467B685B69B2FBF3F3D0
:1031180005333B611FE07B69DB00FA68B2FBF3F221
:1031280013469B0013445B001A467B685B69B2FB3D
:10313800F3F305333B610EE0FA687B69B2FBF3F207
:1031480013469B0013445B001A467B685B69B2FB1D
:10315800F3F305333B613B695C4AA2FB0323DB08BD
:103168003B613B6903F00103BB613A69BB69D31A50
:103178005B08FB61BB691B02BB6103E00223FB61C7
:103188000023BB61FB69012B02D9FB69FF2B07D91F
:103198007B685B6C43F010027B685A6401238FE004
:1031A8007B681A69BB6942EA03017B681B68FA6994
:1031B8000A431A627B681B68DB6923F47B6323F08C
:1031C8000F037A6851687A68926811437A68D268FE
:1031D80011437A6892690A431A437B681B6842F470
:1031E8000062DA617B681B6A012B61D17B68384A0F
:1031F8005A637B681B68374A934201D1364B01E01A
:103208004FF04023DB697A68126832498A4201D15B
:10321800314A01E04FF0402223F47B6323F00F038F
:10322800D3617B681B682B4A934201D12A4B01E08A
:103238004FF0402302221A627B681B68254A93429A
:1032480001D1254B01E04FF04023DB697B817B688E
:103258005B68B3F5007F03D07B685B68002B03D104
:103268004FF480733B6101E000233B613B699AB2F4
:103278007B689B6899B27B68DB6898B27B689B69BE
:103288009BB203439BB20B439BB213439AB27B8915
:1032980013439BB243F400637B817B681B680D4A30
:1032A800934201D10C4B01E04FF040237A89DA6157
:1032B8007B6800225A647B68012283F8412000233E
:1032C80018462037BD4680BDD5330008CDCCCCCCC0
:1032D800E9340008003800400034004080B483B06E
:1032E80000AF786000BF0C37BD4680BC704780B423
:1032F80083B000AF786000BF0C37BD4680BC704714
:1033080080B483B000AF786000BF0C37BD4680BC86
:10331800704780B582B000AF78607B685B6A1A88B6
:103328007B681B68DA607B685B6A9A1C7B685A62F8
:103338007B685B8D9BB2013B9AB27B685A857B6840
:103348005B8D9BB2002B0ED17B681B685A687B682B
:103358001B6822F0A0025A607B68012283F8412092
:103368007868FFF7BBFF00BF0837BD4680BD80B552
:1033780082B000AF78607B681B68DA687B68DB6ABC
:1033880092B21A807B68DB6A9A1C7B68DA627B6877
:103398005B8E9BB2013B9AB27B685A867B685B8ED8
:1033A8009BB2002B0ED17B681B685A687B681B6830
:1033B80022F060025A607B68012283F84120786815
:1033C800FFF795FF00BF0837BD4680BD80B586B0C2
:1033D80000AF78607B681B689B687B617B6893F8AB
:1033E8004130DBB2042B3AD17B6903F00103012B96
:1033F80009D17B681B685B6803F04003402B02D14E
:103408007868FFF7B4FF7B6903F04003402B26D1AF
:103418007B681B685B6803F02003202B1FD17B6847
:103428001B685A687B681B6822F060025A60002398
:103438003B617B681B68DB683B617B681B689B683A
:103448003B613B697B68012283F841207B685B6CA8
:1034580043F002027B685A647868FFF751FF7B6883
:1034680093F84130DBB2032B36D17B6903F00203BA
:10347800022B09D17B681B685B6803F08003802BF3
:1034880002D17868FFF745FF7B6903F00803082B32
:1034980022D17B681B685B6803F02003202B1BD1BB
:1034A8007B681B685A687B681B6822F0A0025A6018
:1034B8000023FB607B681B689B68FB60FB687B687C
:1034C800012283F841207B685B6C43F004027B682F
:1034D8005A647868FFF714FF00BF1837BD4680BDEF
:1034E80080B588B000AF78607B681B689B68FB611B
:1034F8007B681B68924A934201D1924B01E04FF0DE
:1035080040239B68BB617B681B685B687B617B6849
:103518001B688B4A934201D18A4B01E04FF040234C
:103528005B683B617B685B68B3F5007F04D07B68B0
:103538005B68002B40F09980FB6903F00203022BC3
:1035480007D17B6903F08003002B02D0786800F074
:1035580024F9BB6903F00103012B07D13B6903F090
:103568004003002B02D0786800F0C6F9BB6903F06D
:103578004003402B3AD13B6903F02003002B35D0A0
:103588007B681B686E4A934201D16E4B01E04FF095
:1035980040235A687B681B6869498B4201D1694B93
:1035A80001E04FF0402322F060025A607B681B68FC
:1035B8005A687B681B6822F0A0025A600023FB60EF
:1035C8007B681B68DB68FB607B681B689B68FB602B
:1035D800FB687B68012283F841207B685B6C43F0C1
:1035E80002027B685A647868FFF78AFEFB6903F079
:1035F8000803082B40F0C3807B6903F02003002BED
:1036080000F0BD807B681B685A687B681B6822F0E5
:10361800A0025A607B681B68494A934201D1494B12
:1036280001E04FF040235A687B681B6844498B428D
:1036380001D1444B01E04FF0402322F060025A6070
:103648000023BB607B681B689B68BB60BB687B68AA
:10365800012283F841207B685B6C43F004027B689D
:103668005A647868FFF74CFE89E0BB6903F00203EF
:10367800022B07D13B6903F08003002B02D0786846
:1036880000F0BCF8FB6903F00103012B07D17B694B
:1036980003F04003002B02D0786800F0FBF8FB69C8
:1036A80003F04003402B2FD17B6903F02003002B4C
:1036B8002AD07B681B685A687B681B6822F0600206
:1036C8005A607B681B681E4A934201D11D4B01E07A
:1036D8004FF040235A687B681B6819498B4201D117
:1036E800184B01E04FF0402322F0A0025A607B689B
:1036F800012283F841207B685B6C43F002027B68FF
:103708005A647868FFF7FCFDBB6903F00803082BCF
:1037180036D13B6903F02003002B31D07B681B684E
:10372800074A934201D1074B01E04FF040235A6802
:103738007B681B6802498B4206D1024B06E000BF3A
:1037480000380040003400404FF0402322F0A0022F
:103758005A607B681B685A687B681B6822F06002A5
:103768005A607B68012283F841207B685B6C43F0D8
:1037780004027B685A647868FFF7C2FD00E000BF66
:1037880000BF2037BD4680BD80B483B000AF7860ED
:1037980000BF0C37BD4680BC704780B582B000AF13
:1037A80078607B685B6A991C7A6851621A887B68C2
:1037B8001B68DA607B685B8D9BB2013B9AB27B68C1
:1037C8005A857B685B8D9BB2002B13D17B681B6885
:1037D8005A687B681B6822F0A0025A607B685B8E7F
:1037E8009BB2002B06D17B68012283F841207868C0
:1037F800FFF7CAFF00BF0837BD4680BD80B582B05D
:1038080000AF78607B685B6A991C7A685162198896
:103818007B681B681D4A934201D11D4B01E04FF0A4
:1038280040230A46DA607B685B8D9BB2013B9AB203
:103838007B685A857B685B8D9BB2002B21D17B68A6
:103848001B68124A934201D1114B01E04FF040230B
:103858005A687B681B680D498B4201D10C4B01E00B
:103868004FF0402322F0A0025A607B685B8E9BB227
:10387800002B06D17B68012283F841207868FFF786
:1038880083FF00BF0837BD4680BD00BF0038004039
:103898000034004080B582B000AF78607B681B6858
:1038A800D8687B68DB6A991C7A68D16282B21A8010
:1038B8007B685B8E9BB2013B9AB27B685A867B68B9
:1038C8005B8E9BB2002B13D17B681B685A687B68A0
:1038D8001B6822F060025A607B685B8D9BB2002BEC
:1038E80006D17B68012283F841207868FFF74CFFF6
:1038F80000BF0837BD4680BD80B582B000AF786094
:103908007B681B68204A934201D1204B01E04FF0AD
:103918004023D8687B68DB6A991C7A68D16282B2D6
:103928001A807B685B8E9BB2013B9AB27B685A8691
:103938007B685B8E9BB2002B21D17B681B68124A87
:10394800934201D1114B01E04FF040235A687B6844
:103958001B680D498B4201D10C4B01E04FF040230D
:1039680022F060025A607B685B8D9BB2002B06D107
:103978007B68012283F841207868FFF705FF00BFC4
:103988000837BD4680BD00BF003800400034004005
:1039980080B586B000AF78607B68002B01D1012329
:1039A8005EE27B681B6803F00103002B75D0884B2F
:1039B8009B6803F00C03042B0CD0854B9B6803F029
:1039C8000C03082B12D1824B5B6803F48003B3F518
:1039D800800F0BD17E4B1B6803F40033002B5BD0A8
:1039E8007B685B68002B57D1012339E27B685B68F1
:1039F800B3F5803F06D1764B1B68754A43F4803394
:103A080013601DE07B685B68B3F5A02F0CD1704B89
:103A18001B686F4A43F4802313606D4B1B686C4A24
:103A280043F4803313600BE0694B1B68684A23F446
:103A380080331360664B1B68654A23F48023136048
:103A48007B685B68002B13D0FDF76EFA386108E0DD
:103A5800FDF76AFA02463B69D31A642B01D903239E
:103A6800FEE15B4B1B6803F40033002BF0D014E03D
:103A7800FDF75AFA386108E0FDF756FA02463B6945
:103A8800D31A642B01D90323EAE1514B1B6803F4D1
:103A98000033002BF0D100E000BF7B681B6803F007
:103AA8000203002B63D04A4B9B6803F00C03002BE6
:103AB8000BD0474B9B6803F00C03082B1CD1444BDD
:103AC8005B6803F48003002B16D1414B1B6803F09D
:103AD8000203002B05D07B68DB68012B01D0012392
:103AE800BEE13B4B1B6823F0F8027B681B69DB00D7
:103AF800374913430B603AE07B68DB68002B20D022
:103B0800344B01221A60FDF70FFA386108E0FDF71F
:103B18000BFA02463B69D31A022B01D903239FE112
:103B28002B4B1B6803F00203002BF0D0284B1B68BB
:103B380023F0F8027B681B69DB00254913430B60FF
:103B480015E0244B00221A60FDF7EEF9386108E011
:103B5800FDF7EAF902463B69D31A022B01D9032380
:103B68007EE11B4B1B6803F00203002BF0D17B683E
:103B78001B6803F00803002B36D07B685B69002BB9
:103B880016D0154B01221A60FDF7CEF9386108E00E
:103B9800FDF7CAF902463B69D31A022B01D9032360
:103BA8005EE10B4B5B6F03F00203002BF0D01BE0D0
:103BB800094B00221A60FDF7B7F938610EE0FDF7EE
:103BC800B3F902463B69D31A022B07D9032347E10D
:103BD8000038024000004742800E4742884B5B6F26
:103BE80003F00203002BEAD17B681B6803F004038F
:103BF800002B00F097800023FB75814B1B6C03F0B2
:103C08008053002B0FD10023BB607D4B1B6C7C4A7B
:103C180043F0805313647A4B1B6C03F08053BB60F2
:103C2800BB680123FB75774B1B6803F48073002B7B
:103C380018D1744B1B68734A43F480731360FDF703
:103C480073F9386108E0FDF76FF902463B69D31A4A
:103C5800022B01D9032303E16A4B1B6803F4807329
:103C6800002BF0D07B689B68012B06D1644B1B6F3F
:103C7800634A43F0010313671CE07B689B68052BCC
:103C88000CD15F4B1B6F5E4A43F0040313675C4B18
:103C98001B6F5B4A43F0010313670BE0584B1B6F24
:103CA800574A23F001031367554B1B6F544A23F0FF
:103CB800040313677B689B68002B15D0FDF734F964
:103CC80038610AE0FDF730F902463B69D31A41F240
:103CD8008832934201D90323C2E0494B1B6F03F09A
:103CE8000203002BEED014E0FDF71EF938610AE05C
:103CF800FDF71AF902463B69D31A41F2883293421A
:103D080001D90323ACE03E4B1B6F03F00203002BE9
:103D1800EED1FB7D012B05D1394B1B6C384A23F0C2
:103D2800805313647B689B69002B00F09880344BA8
:103D38009B6803F00C03082B5CD07B689B69022B03
:103D480041D1314B00221A60FDF7EEF8386108E0E6
:103D5800FDF7EAF802463B69D31A022B01D903237F
:103D68007EE0274B1B6803F00073002BF0D17B68C3
:103D7800DA697B681B6A1A437B685B6A9B011A4392
:103D88007B689B6A5B08013B1B041A437B68DB6A00
:103D98001B061B4913434B601B4B01221A60FDF79E
:103DA800C3F8386108E0FDF7BFF802463B69D31A4B
:103DB800022B01D9032353E0114B1B6803F0007356
:103DC800002BF0D04BE0104B00221A60FDF7ACF846
:103DD800386108E0FDF7A8F802463B69D31A022BC0
:103DE80001D903233CE0064B1B6803F00073002B4A
:103DF800F0D134E07B689B69012B07D101232FE0C8
:103E0800003802400070004060004742164B9B6833
:103E1800FB60FB6803F480027B68DB699A421CD173
:103E2800FB6803F03F027B681B6A9A4215D1FA6867
:103E380047F6C07313407A68526A93420DD1FB6803
:103E480003F440327B689B6A9A4206D1FB6803F010
:103E580070627B68DB6A9A4201D0012300E000238C
:103E680018461837BD4680BD0038024080B584B07A
:103E780000AF786039607B68002B01D10123CCE06A
:103E8800684B1B6803F00F033A689A420CD9654BDC
:103E98003A68D2B21A70634B1B6803F00F033A6892
:103EA8009A4201D00123B8E07B681B6803F0020343
:103EB800002B20D07B681B6803F00403002B05D07F
:103EC800594B9B68584A43F4E05393607B681B68DE
:103ED80003F00803002B05D0534B9B68524A43F468
:103EE80060439360504B9B6823F0F0027B689B68AB
:103EF8004D4913438B607B681B6803F00103002B5B
:103F080044D07B685B68012B07D1474B1B6803F4DF
:103F18000033002B19D101237FE07B685B68022BFB
:103F280003D07B685B68032B07D13F4B1B6803F00A
:103F38000073002B09D101236FE03B4B1B6803F092
:103F48000203002B01D1012367E0374B9B6823F064
:103F580003027B685B68344913438B60FCF7E4FF1A
:103F6800F8600AE0FCF7E0FF0246FB68D31A41F26A
:103F78008832934201D903234FE02B4B9B6803F00F
:103F88000C027B685B689B009A42EBD1254B1B684F
:103F980003F00F033A689A420CD2224B3A68D2B225
:103FA8001A70204B1B6803F00F033A689A4201D03D
:103FB800012332E07B681B6803F00403002B08D060
:103FC800194B9B6823F4E0527B68DB68164913435E
:103FD8008B607B681B6803F00803002B09D0124B29
:103FE8009B6823F460427B681B69DB000E4913431E
:103FF8008B6000F021F802460B4B9B681B0903F00D
:104008000F030A49CB5C22FA03F3094A1360094BF0
:104018001B681846FCF746FF002318461037BD46B4
:1040280080BD00BF003C024000380240F482000816
:1040380020000020240000202DE9B04F94B000AFEC
:1040480000237B640023FB6400233B640023BB64E0
:104058007C4B9B6803F00C03082B0DD0082B00F257
:10406800E780002B02D0042B03D0E1E0764BBB6441
:10407800E1E0764BBB64DEE0724B5B6803F03F0324
:104088007B64704B5B6803F48003002B65D06D4B39
:104098005B689B090022BB63FA63BB6BC3F308032D
:1040A8003B6300237B63D7E90C4522462B464FF040
:1040B80000004FF00001590141EAD2615001024667
:1040C8000B462146511A3961294663EB01037B618E
:1040D8004FF000024FF00003D7E904AB59468B01BB
:1040E800514643EA916351468A01D446B2EB0C0823
:1040F800594663EB01094FF000024FF000034FEA05
:10410800C90343EA58734FEAC802904699462346C2
:1041180018EB0303BB602B4649EB0303FB604FF02E
:1041280000024FF00003D7E9024529464B0220461A
:104138002946044643EAD45301464A021046194622
:104148007B6C0022BB62FA62D7E90A23FCF720F8ED
:1041580002460B461346FB645CE03A4B5B689B09DE
:10416800002218461146C0F308033B6200237B6215
:10417800D7E9088942464B464FF000004FF000014E
:10418800590141EAD261500102460B46C446B2EBDE
:104198000C0A404649468C4663EB0C0B4FF0000274
:1041A8004FF000034FEA8B1343EA9A634FEA8A12EF
:1041B800B2EB0A0463EB0B054FF000024FF000036B
:1041C800EB0043EA5473E20014461D460346E31825
:1041D8003B600B4645EB03037B604FF000024FF05A
:1041E8000003D7E9004529468B02204629460446A4
:1041F80043EA945301468A02104619467B6C002212
:10420800BB61FA61D7E90623FBF7C2FF02460B46FA
:104218001346FB640B4B5B681B0C03F00303013371
:104228005B003B64FA6C3B6CB2FBF3F3BB6402E0EB
:10423800054BBB6400BFBB6C18465037BD46BDE894
:10424800B08F00BF003802400024F40000127A004A
:1042580080B400AF024B1B681846BD4680BC70474F
:104268002000002080B500AFFFF7F2FF0246054BA3
:104278009B689B0A03F007030349CB5C22FA03F30C
:10428800184680BD003802400483000880B586B017
:1042980000AF786000237B6100233B617B681B686B
:1042A80003F00103002B05D17B681B6803F00403AE
:1042B800002B38D0684B00221A60FCF735FE786175
:1042C80008E0FCF731FE02467B69D31A022B01D9BC
:1042D8000323BDE0614B1B6803F00063002BF0D1A2
:1042E8007B685A687B689B689B011A437B68DB681C
:1042F8001B075A491343C1F88430574B01221A60EF
:10430800FCF712FE786108E0FCF70EFE02467B69B6
:10431800D31A022B01D903239AE0504B1B6803F0F0
:104328000063002BF0D07B681B6803F00203002BAE
:1043380000F083800023FB60484B1B6C474A43F026
:1043480080531364454B1B6C03F08053FB60FB6880
:10435800434B1B68424A43F480731360FCF7E4FD47
:10436800786108E0FCF7E0FD02467B69D31A022B6E
:1043780001D903236CE03A4B1B6803F48073002BCC
:10438800F0D0364B1B6F03F440733B613B69002B45
:104398002FD07B681B6903F440733A699A4228D08E
:1043A8002E4B1B6F23F440733B612E4B01221A6086
:1043B8002C4B00221A60294A3B691367274B1B6F55
:1043C80003F00103012B14D1FCF7AEFD78610AE07C
:1043D800FCF7AAFD02467B69D31A41F28832934260
:1043E80001D9032334E01D4B1B6F03F00203002B9C
:1043F800EED07B681B6903F44073B3F5407F0DD1A1
:10440800164B9B6823F4F8127B681B6923F07043F2
:1044180023F44073114913438B6005E00F4B9B68ED
:104428000E4A23F4F81393600C4B1A6F7B681B69D0
:10443800C3F30B03094913430B677B681B6803F03D
:104448000803002B03D07B681A7D074B1A600023F2
:1044580018461837BD4680BD6800474200380240FC
:1044680000700040400E4742E011474280B487B0D8
:1044780000AF786000237B6100233B610023FB6071
:104488000023BB607B68012B40D1234B9B6803F45E
:104498000003FB60FB68002B05D0FB68012B31D1C2
:1044A8001E4B7B6131E01C4B5B6803F48003B3F562
:1044B800800F09D1184BD3F8843003F03F03184A12
:1044C800B2FBF3F33B6108E0134BD3F8843003F0FD
:1044D8003F03144AB2FBF3F33B610F4BD3F884302C
:1044E8009B09C3F308023B6902FB03F3BB600A4B59
:1044F800D3F884301B0F03F00703BA68B2FBF3F359
:104508007B6102E000237B6100BF00BF7B69184626
:104518001C37BD4680BC7047003802400080BB0095
:1045280000127A000024F40080B582B000AF7860F1
:104538007B68002B01D1012356E07B6800229A6238
:104548007B6893F85130DBB2002B06D17B680022E0
:1045580083F850207868FCF79DFB7B68022283F87B
:1045680051207B681B681A687B681B6822F0400230
:104578001A607B685A687B689B681A437B68DB68AB
:104588001A437B681B691A437B685B691A437B681B
:104598009B6903F400731A437B68DB691A437B68E1
:1045A8001B6A42EA03017B689A6A7B681B680A43B4
:1045B8001A607B689B691B0C03F004017B685A6ACC
:1045C8007B681B680A435A607B681B68DA697B68EA
:1045D8001B6822F40062DA617B6800225A657B68F6
:1045E800012283F85120002318460837BD4680BDB4
:1045F80084B080B584B000AF786007F11C0080E813
:104608000E003B6B012B22D17B689B6B23F480321D
:104618007B689A637B68DB6823F4840323F0400398
:104628007A68D3607B68DB6823F440127B68DA60C1
:10463800FB6C012B05D17B68DB6843F480127B6837
:10464800DA60786800F040F90346FB731AE07B688B
:10465800DB6843F040027B68DA60786800F034F980
:104668000346FB733B6C002B06D17B689B6B43F4C2
:1046780080327B689A6305E07B689B6B23F4803209
:104688007B689A63BB6A012B0BD17B689B6843F0FC
:1046980006027B689A607B689B6843F020027B680F
:1046A8009A60FB7B18461037BD46BDE8804004B0D1
:1046B800704780B483B000AF78607B689B6843F034
:1046C80001027B689A60002318460C37BD4680BCFF
:1046D800704780B483B000AF78607B689B6823F034
:1046E80001027B689A60002318460C37BD4680BCDF
:1046F800704780B582B000AF78600B46FB707B686E
:10470800DB6823F0C0427B68DA60FB78012B06D1B6
:104718007B68DB6843F000527B68DA600BE0FB786B
:10472800002B06D17B68DB6843F080427B68DA6047
:1047380001E0012303E03220FCF700FC00231846C7
:104748000837BD4680BD000080B485B000AF7860F2
:1047580039600023FB603B689B0143F020027B68C3
:104768001A61FB680133FB60FB68084A934201D970
:10477800032306E07B681B6903F02003202BF0D09D
:10478800002318461437BD4680BC7047400D03000F
:1047980080B485B000AF78600023FB607B6810228E
:1047A8001A61FB680133FB60FB68084A934201D930
:1047B800032306E07B681B6903F01003102BF0D07D
:1047C800002318461437BD4680BC7047400D0300CF
:1047D80080B489B000AFF860B96011461A460B463C
:1047E800FB711346BB80FB687B61BB68FB6197F874
:1047F8002830002B1AD1BB8803339B083B61002368
:10480800BB610FE0FB791A037B69134403F58053FE
:104818001A46FB691B681360FB690433FB61BB69BB
:104828000133BB61BA693B699A42EBD3002318464E
:104838002437BD4680BC704780B489B000AFF860AB
:10484800B9601346FB80FB687B61BB68FB61FB8832
:1048580003339B083B610023BB610BE07B6903F5D5
:1048680080531A68FB691A60FB690433FB61BB69F2
:104878000133BB61BA693B699A42EFD3FB691846B9
:104888002437BD4680BC704780B485B000AF7860DF
:104898007B685B69FB607B689B69FA681340FB6017
:1048A800FB6818461437BD4680BC704780B483B097
:1048B80000AF78607B685B6903F0010318460C372A
:1048C800BD4680BC7047000080B485B000AF7860FA
:1048D8000023FB60FB680133FB60FB68124A9342CC
:1048E80001D903231BE07B681B69002BF2DA002344
:1048F800FB607B681B6943F001027B681A61FB68F7
:104908000133FB60FB68084A934201D9032306E0A0
:104918007B681B6903F00103012BF0D000231846C4
:104928001437BD4680BC7047400D030084B080B585
:1049380084B000AF786007F11C0080E80E007B6847
:10494800BB60BB6803F560631A46002313607B688D
:104958009B6B43F400127B689A637B689B6B23F420
:1049680000227B689A637B689B6B23F480227B68B8
:104978009A637B68DB6B03F48073002B18D07B6A27
:10498800032B0AD1BB6803F580631B68BA6802F57C
:10499800806243F00403136014E0BB6803F580638E
:1049A8001B68BA6802F5806223F00403136009E00B
:1049B800BB6803F580631B68BA6802F5806223F060
:1049C8000403136010217868FFF7BEFE7868FFF7CC
:1049D800DFFE0023FB6015E0FB685A01BB68134447
:1049E80003F5A0631A464FF0FF339360FB685A0142
:1049F800BB68134403F5A0631A460023D360FB6821
:104A08000133FB603B6AFA689A42E5D30121786872
:104A180000F0ABF8C820FCF791FA7B6800229A6195
:104A28007B684FF0FF325A617B68DB6B03F480735D
:104A3800002B0BD07B684FF400725A627B68144AD3
:104A48009A627B68134AC3F8002109E07B688022D8
:104A58005A627B68104A9A627B68104AC3F8002140
:104A6800BB6A002B05D17B689B6943F010027B6809
:104A78009A617B689A690A4B13437A6893610023A9
:104A880018461037BD46BDE8804004B0704700BFE7
:104A9800000200010003E00080006000E000400028
:104AA800080020A380B485B000AF78600B46FB7087
:104AB8007B68FB60FB6803F580631B68FA6802F596
:104AC800806223F003031360FB6803F580631A68B0
:104AD800FB7803F00303F96801F5806113430B6069
:104AE800FB78012B07D1FB6803F580631A464BF668
:104AF8008033536009E0FB78022B06D1FB6803F58D
:104B080080631A4641F270735360002318461437C5
:104B1800BD4680BC704780B584B000AF78607B68C4
:104B2800FB600023BB60FB6803F588631B68BB6000
:104B3800BB6823F02E03BB60BB68FA6802F5886285
:104B480043F4807313606420FCF7F8F9BB68FA68D3
:104B580002F5886223F4807313600A20FCF7EEF9EB
:104B6800002318461037BD4680BD80B485B000AF1D
:104B780078600B46FB707B68FB600023BB60FB68BA
:104B880003F588631B68BB60BB6823F02E03BB601A
:104B9800BB6803F48053002B09D1FB78012B06D1A5
:104BA800BB68FA6802F5886243F480531360BB68F7
:104BB80003F48053B3F5805F09D1FB78002B06D14D
:104BC800BB68FA6802F5886223F4805313600023F7
:104BD80018461437BD4680BC704780B485B000AF16
:104BE80078607B68FB600023BB60FB6803F5886323
:104BF8001B68BB60BB685B0C03F0030318461437E3
:104C0800BD4680BC704780B485B000AF78607B68D3
:104C1800FB60FB6803F580639B689BB218461437FA
:104C2800BD4680BC7047000080B487B000AF786094
:104C3800084611461A460346FB700B46BB701346DE
:104C48007B700023FB757B68BB60FB785A01BB68EF
:104C5800134403F5A0631A464FF0FF33936097F8A7
:104C68002430032B7ED801A252F823F0854C00088B
:104C78002F4D0008854C0008F14C0008FB785A01BC
:104C8800BB68134403F5A0631A4640F29D43D36002
:104C980097F90230002B10DAFB785A01BB681344ED
:104CA80003F5A063DB68FA785101BA680A4402F593
:104CB800A06243F48073D36057E07B68DB6B03F436
:104CC8008073002B51D0FB785A01BB68134403F55D
:104CD800A063DB68FA785101BA680A4402F5A06259
:104CE80043F06003D36040E0FB785A01BB6813448B
:104CF80003F5A0631A4640F29D63D36097F902302A
:104D0800002B34DAFB785A01BB68134403F5A0631F
:104D1800DB68FA785101BA680A4402F5A06243F4E4
:104D28008073D36023E0FB785A01BB68134403F512
:104D3800A0631A4640F22523D36097F90230002B6E
:104D480017DAFB785A01BB68134403F5A063DB68E4
:104D5800FA785101BA680A4402F5A06243F4C073B4
:104D6800D36006E00123FB7504E000BF02E000BF4A
:104D780000E000BFBB6803F580639A69FB7803F025
:104D88000F03012101FA03F3B96801F580611343A8
:104D98008B617B689B6943F000727B689A6197F925
:104DA8000230002B03DA4FF400433B6101E000239B
:104DB8003B6197F82030022B03D14FF40033FB609E
:104DC80001E00023FB607B789B0503F0FE52BB7873
:104DD800DB0203F4F0431A4397F824309B0403F4EE
:104DE80040231A433B8DC3F30A031A433B691A4312
:104DF800FB785901BB680B4403F5A0631946FB68AF
:104E080013430B6097F82430032B0FD1FB785A011A
:104E1800BB68134403F5A0631B68FA785101BA68AC
:104E28000A4402F5A06243F000531360FB7D184664
:104E38001C37BD4680BC704780B58CB002AFF860A7
:104E4800B9601346FB71FB683B62BB685B78FB612A
:104E58004FF480737B83FB68DB6B03F48073002B58
:104E680028D0BB681B79002B24D1FB79002B0BD1F0
:104E7800BB685B79012B07D1BB685B781946F8687A
:104E880000F02AFA002311E1FB79012B12D1FB690A
:104E98005A013B6A134403F5A063DB68FA695101C0
:104EA8003A6A0A4402F5A06223F06003D360BB6843
:104EB80000225A71BB681B69002B18D0BB681B699C
:104EC800BA6812891344013BBA681289B3FBF2F33A
:104ED800FB84FA8C7B8B9A420BD97B8BFB84FB8CF3
:104EE800BA68128903FB02F2BB681A6101E0012368
:104EF800FB84BB68DB78002B06D0FB8CBA68128970
:104F080003FB02F2BB681A61BB681B69C3F3120298
:104F1800FB8CD904674B0B401A43BB689B7A5B0731
:104F280003F0C043F9694801396A014401F5A061F9
:104F380013430B61FB79002B09D0BB68D968FB6967
:104F48005A013B6A134403F5A0630A465A613B6A57
:104F580003F580639B6803F00103002B0CBF01235A
:104F68000023DBB27B76FB695A013B6A134403F5E5
:104F7800A0631B68FA6951013A6A0A4402F5A06203
:104F880023F000531360FB695A013B6A134403F58D
:104F9800A0631A687B7E5B07F9694801396A014496
:104FA80001F5A06113430B60FB695A013B6A134486
:104FB80003F5A0631B68404A13603F4B1B6823F04E
:104FC80080433D4A1360BB68DB78002B06D03A4B20
:104FD8001B6843F40043384A136005E0364B1B68EE
:104FE80023F40043344A1360334B1B6843F00043F7
:104FF800314A1360FB695A013B6A134403F5A06305
:105008001A462D4B1B681360FB79002B4DD1BB68EA
:10501800DB78002B49D1BB681B69002B45D0BB68E6
:10502800DB79032B30D801A252F823F04550000851
:10503800695000084550000869500008BB681B69A2
:1050480003339B08FB82FA8AFB68DB6A9BB29A42AD
:105058001CD9FB689B6943F02002FB689A6115E044
:10506800BB681B6903339B08FB82FA8A3B6A03F51A
:1050780080631B699BB29A420AD9FB689B6943F01B
:105088008062FB689A6103E000BF02E000BF00E0B5
:1050980000BFBB68D968BB685A78BB681B699BB2FC
:1050A80000200090F868FFF793FB00231846283784
:1050B800BD4680BD0000F81F000A002080B485B0FE
:1050C80000AF78607B68FB60FB6803F580635B6911
:1050D8009BB218461437BD4680BC704780B487B071
:1050E80000AF78600B46FB707B683B61FB78FB6028
:1050F80000237B61FB685A013B69134403F5A063F5
:105108001B689B0C03F00303BB60BB68002B02D039
:10511800BB68022B6CD1FB685A013B69134403F549
:10512800A0631B68FA6851013A690A4402F5A06253
:1051380043F0804313607B68DB6A03F47F03002B32
:1051480043D1FB685A013B69134403F5A0631B680C
:10515800FA6851013A690A4402F5A06223F0004353
:105168001360FB685A013B69134403F5A0631B688D
:10517800FA6851013A690A4402F5A06243F0004313
:105188001360FB685A013B69134403F5A0631B686D
:10519800FA6851013A690A4402F5A06223F400430F
:1051A80013607B6901337B617B69B3F57A7F1DD816
:1051B800FB685A013B69134403F5A0631B6803F0BD
:1051C8000043B3F1004FECD080E0FB685A013B6923
:1051D800134403F5A0631B68FA6851013A690A444D
:1051E80002F5A06243F0004313606FE000BF6DE07A
:1051F800FB685A013B69134403F5A0631B68FA680E
:1052080051013A690A4402F5A06243F080431360F1
:105218003B6903F580631B6903F47F03002B43D1CB
:10522800FB685A013B69134403F5A0631B68FA68DD
:1052380051013A690A4402F5A06223F00043136061
:10524800FB685A013B69134403F5A0631B68FA68BD
:1052580051013A690A4402F5A06243F00043136021
:10526800FB685A013B69134403F5A0631B68FA689D
:1052780051013A690A4402F5A06223F4004313601D
:105288007B6901337B617B69B3F57A7F1DD8FB6845
:105298005A013B69134403F5A0631B6803F00043FC
:1052A800B3F1004FECD011E0FB685A013B6913449D
:1052B80003F5A0631B68FA6851013A690A4402F5CC
:1052C800A06243F00043136000E000BF00231846CB
:1052D8001C37BD4680BC704780B487B000AF78608B
:1052E8000B46FB707B687B61FB783B610123FB60AD
:1052F800FB68DA04144B13403A6951017A690A448D
:1053080002F5A06243F0004313613B695A017B69CF
:10531800134403F5A0631B68BB60BB6823F080439C
:10532800BB60BB6843F00043BB603B695A017B69C3
:10533800134403F5A0631A46BB681360002318469C
:105348001C37BD4680BC70470000F81F80B586B08A
:1053580000AF78607B68FB6000237B617868FFF7AB
:10536800B8F910217868FFF7EFF97868FFF710FAB5
:1053780000233B611FE03B695A01FB68134403F5B6
:10538800A0631B68BB60BB6843F08043BB60BB681D
:1053980023F00043BB60BB6823F40043BB603B6958
:1053A8005A01FB68134403F5A0631A46BB681360EF
:1053B8003B6901333B613B690F2BDCD900233B611F
:1053C80034E03B695A01FB68134403F5A0631B688A
:1053D800BB60BB6843F08043BB60BB6843F00043DD
:1053E800BB60BB6823F40043BB603B695A01FB68A0
:1053F800134403F5A0631A46BB6813607B69013345
:105408007B617B69B3F57A7F0CD83B695A01FB68ED
:10541800134403F5A0631B6803F00043B3F1004F86
:10542800ECD000E000BF3B6901333B613B690F2BC7
:10543800C7D9FB6803F580631A464FF0FF33536101
:105448007B684FF0FF325A617868FFF732F9002322
:1054580018461837BD4680BD90B589B004AF78604E
:105468000223FB73012302220221786800F031FC39
:105478000346BB73BB7BFF2B00F02A81BB7B19461D
:10548800786800F00BFC7B68D3F87843502002F072
:1054980039FA0346E3617B68D3F87833DB69BB608C
:1054A800BB7B7A681A2101FB03F3134403F24A33E6
:1054B8001B785BB2002B15DABB7B7A681A2101FBDB
:1054C80003F3134403F24A331A78BB685A70BB7B60
:1054D8007A681A2101FB03F3134403F553731A88FE
:1054E800BB685A81BB685B781946786801F00DFD86
:1054F80003461A46BB681A70BB681978BB685878A7
:105508007B6893F81C437B6893F81D33BA6852890B
:10551800029203220192009323460246786801F022
:10552800C5FCBB681B7800221946786801F0CAFFE1
:10553800002300220A21786800F0CBFB0346BB73E6
:10554800BB7BFF2B00F0C480BB7B7A681A2101FB70
:1055580003F3134403F24A331B785BB2002B16DAC9
:10556800BB7B7A681A2101FB03F3134403F24A3325
:105578001A78BB68DA73BB7B7A681A2101FB03F3DC
:10558800134403F553731A88BB685A8315E0BB7B31
:105598007A681A2101FB03F3134403F24A331A7899
:1055A800BB689A73BB7B7A681A2101FB03F3134427
:1055B80003F553731A88BB681A83BB7B7A681A2170
:1055C80001FB03F3134403F252331B785BB2002B45
:1055D80016DABB7B7A681A2101FB03F3134403F242
:1055E80052331A78BB68DA73BB7B7A681A2101FBDD
:1055F80003F3134403F555731A88BB685A8315E0FF
:10560800BB7B7A681A2101FB03F3134403F252337C
:105618001A78BB689A73BB7B7A681A2101FB03F37B
:10562800134403F555731A88BB681A83BB689B7BC0
:105638001946786801F069FC03461A46BB685A7334
:10564800BB68DB7B1946786801F05FFC03461A46A5
:10565800BB681A73BB68597BBB68987B7B6893F8F7
:105668001C437B6893F81D33BA68128B029202229E
:105678000192009323460246786801F017FCBB6844
:10568800197BBB68D87B7B6893F81C437B6893F8CD
:105698001D33BA68528B029202220192009323466C
:1056A8000246786801F002FCBB68002283F84C20AF
:1056B800BB685B7B00221946786801F003FFBB6872
:1056C8001B7B00221946786801F0FCFE0023FB735F
:1056D800FB7B18461437BD4690BD80B584B000AF3B
:1056E80078607B68D3F87833DB69FB60FB681B78EC
:1056F800002B0ED0FB681B781946786801F0F5FB83
:10570800FB681B781946786801F01DFCFB680022CD
:105718001A70FB681B7B002B0ED0FB681B7B19469D
:10572800786801F0E2FBFB681B7B1946786801F09A
:105738000AFCFB6800221A73FB685B7B002B0ED007
:10574800FB685B7B1946786801F0CFFBFB685B7BE5
:105758001946786801F0F7FBFB6800225A737B68EA
:10576800D3F87833DB69002B0BD07B68D3F8783318
:10577800DB69184602F0CEF87B68D3F8783300224C
:10578800DA61002318461037BD4680BD80B584B065
:1057980000AF78600223FB737B68D3F87833DB694A
:1057A800BB60BB6840331946786800F0B1F803461F
:1057B800FB73FB7B002B05D17B68D3F8C833022130
:1057C80078689847FB7B18461037BD4680BD0000B7
:1057D80080B584B000AF78600123FB730023BB73EE
:1057E8007B68D3F87833DB69BB60BB6893F84C30CF
:1057F800042B77D801A252F823F000BF19580008EB
:105808001F5800084F580008C3580008D15800080E
:105818000023FB736DE0BB689B6C1946786800F049
:1058280096F80346BB73BB7B002B04D1BB680222EE
:1058380083F84C2058E0BB7B012B55D0BB68042271
:1058480083F84C2050E0BB6840331946786800F074
:105858005FF80346BB73BB7B002B26D1BB680022D5
:1058680083F84C20BB6893F84420BB689B6C1B7979
:105878009A423BD1BB6893F84620BB689B6C9B79E6
:105888009A4233D1BB6893F84520BB689B6C5B791F
:105898009A422BD1BB681A6CBB689B6C1B689A42F6
:1058A80024D1786800F055F920E0BB7B012B1DD08E
:1058B800BB68042283F84C2018E0786800F066F88A
:1058C800786800F0D9F814E00021786800F0C0FE8C
:1058D8000346BB73BB7B002B0AD1BB68002283F84D
:1058E8004C2005E000BF04E000BF02E000BF00E07C
:1058F80000BFFB7B18461037BD4680BD80B483B01F
:1059080000AF7860002318460C37BD4680BC70474E
:1059180080B582B000AF786039607B68A1221A74C4
:105928007B6821225A747B6800225A827B68002295
:105938009A827B680722DA823B68072219467868D0
:1059480001F061F8034618460837BD4680BD80B5AA
:1059580082B000AF786039607B6821221A747B6856
:1059680020225A747B6800225A827B6800229A821D
:105978007B680722DA823B6807221946786801F0BB
:1059880042F8034618460837BD4680BD80B586B044
:1059980002AF78607B68D3F87833DB69FB6000235B
:1059A800FB72FB6893F84D30012B02D0022B23D0F9
:1059B8005EE0FB685B6AFA68128B93420BD9FB685E
:1059C800D969FB681A8BFB685B7B012000907868BB
:1059D80001F029FA0BE0FB68D969FB685B6A9AB2A7
:1059E800FB685B7B01200090786801F01CFAFB687B
:1059F800022283F84D203BE0FB685B7B1946786800
:105A080001F036FD0346FB72FB7A012B28D1FB68B7
:105A18005B6AFA68128B93420ED9FB685B6AFA6874
:105A2800128B9A1AFB685A62FB68DB69FA68128B58
:105A38001A44FB68DA6102E0FB6800225A62FB68DC
:105A48005B6A002B04D0FB68012283F84D200EE02E
:105A5800FB68002283F84D20786800F068F806E0BB
:105A6800FB7A022B03D1FB68012283F84D2000BF8B
:105A780000BF1037BD4680BD80B586B000AF7860E6
:105A88007B68D3F87833DB697B610023FB747B691F
:105A980093F84E30032B02D0042B0ED043E07B69E1
:105AA800196A7B695A8B7B691B7B786801F0E0F97E
:105AB8007B69042283F84E2035E07B691B7B1946FD
:105AC800786801F0D5FC0346FB74FB7C012B29D1D7
