:020000040800F2
:100000000000022019920008010A00080D0A0008E9
:10001000130A0008190A00081F0A0008000000005F
:10002000000000000000000000000000250A000899
:10003000310A0008000000003D0A0008490A0008D3
:1000400069920008699200086992000869920008A4
:100050006992000869920008699200086992000894
:100060006992000869920008699200086992000884
:100070006992000869920008699200086992000874
:100080006992000869920008699200080000000067
:10009000000000000000000000000000699200085D
:1000A00069920008550A00086992000869920008E0
:1000B000690A0008699200086992000869920008BC
:1000C0006992000869920008699200086992000824
:1000D0006992000869920008699200080000000017
:1000E0006992000869920008699200080000000007
:1000F00000000000000000000000000069920008FD
:1001000000000000699200086992000869920008E6
:1001100000000000000000000000000000000000DF
:1001200069920008699200086992000869920008C3
:1001300069920008000000000000000000000000BC
:100140000000000000000000000000007D0A000820
:100150006992000869920008699200086992000893
:100160006992000869920008000000000000000089
:10017000000000000000000000000000000000007F
:10018000000000006992000800000000000000006C
:08019000699200086992000861
:1001980053B94AB9002908BF00281CBF4FF0FF31E6
:1001A8004FF0FF3000F00CB8ADF1080C6DE904CE4B
:1001B80009F057F8DDF804E0DDE9022304B07047E0
:1001C800704700BF10B5054C237833B9044B13B101
:1001D8000448AFF300800123237010BD9000002075
:1001E800000000002097000808B5034B1BB1034925
:1001F8000348AFF3008008BD000000009400002011
:100208002097000880B58CB000AF07F11C030022CE
:100218001A605A609A60DA601A610023BB61604B09
:100228001B6B5F4A43F0100313635D4B1B6B03F0BA
:100238001003BB61BB6900237B61594B1B6B584A98
:1002480043F004031363564B1B6B03F004037B61F9
:100258007B6900233B61524B1B6B514A43F080037F
:1002680013634F4B1B6B03F080033B613B69002317
:10027800FB604B4B1B6B4A4A43F001031363484B2B
:100288001B6B03F00103FB60FB680023BB60444B5E
:100298001B6B434A43F002031363414B1B6B03F090
:1002A8000203BB60BB6800237B603D4B1B6B3C4A71
:1002B80043F0080313633A4B1B6B03F008037B609E
:1002C8007B6800220821374801F070F901220121DA
:1002D800354801F06BF9002245F21001334801F06E
:1002E80065F90423FB6100233B6200237B6207F16D
:1002F8001C0319462B4800F0B1FE0823FB610123BB
:100308003B6200237B620023BB6207F11C03194692
:10031800244800F0A3FE3223FB61254B3B620023F7
:100328007B6207F11C0319461E4800F097FE012363
:10033800FB6101233B6200237B620023BB6207F160
:100348001C031946184800F089FE0123FB61184B6D
:100358003B6200237B6207F11C031946154800F035
:100368007DFE45F21003FB6101233B6200237B62A3
:100378000023BB6207F11C0319460C4800F06EFE0F
:100388002023FB6100233B6200237B6207F11C03EF
:100398001946064800F062FE00BF3037BD4680BDF2
:1003A800003802400010024000080240000C0240E1
:1003B800000012100000024080B500AF124B134A33
:1003C8001A60114B124A5A600F4B00229A600E4B6A
:1003D8000022DA600C4B4FF480421A610A4B00226B
:1003E8005A61094B00229A61074B0022DA61064BD9
:1003F80000221A62044802F031FE0346002B01D0A5
:1004080000F044FA00BF80BDAC000020005400405A
:10041800A086010080B58AB000AF786007F11403A8
:1004280000221A605A609A60DA601A617B681B6859
:10043800194A93422CD100233B61184B1B6B174A76
:1004480043F002031363154B1B6B03F002033B617C
:100458003B694FF410737B611223BB610123FB617D
:1004680000233B6204237B6207F1140319460C48FE
:1004780000F0F4FD0023FB60084B1B6C074A43F4B3
:1004880000131364054B1B6C03F40013FB60FB683B
:1004980000BF2837BD4680BD0054004000380240E8
:1004A8000004024080B500AF124B134A1A60114B8A
:1004B8004FF400725A600F4B00229A600D4B0022D5
:1004C800DA600C4B00221A610A4B0C4A5A61094B3C
:1004D80000229A61074B0022DA61064B01221A6258
:1004E800044802F087FF0346002B01D000F0CEF944
:1004F80000BF80BD000100200038004000770100E7
:1005080080B500AF134B144A1A60124B4FF40072B7
:100518005A60104B00229A600E4B0022DA600D4B95
:100528004FF400721A610B4B0C4A5A61094B0022B6
:100538009A61084B0022DA61064B00221A620548CC
:1005480002F058FF0346002B01D000F09FF900BFCE
:1005580080BD00BF48010020003C0040007701003A
:1005680080B58EB000AF786007F1240300221A60CE
:100578005A609A60DA601A617B681B68594A93422C
:100588005BD100233B62584B1B6C574A43F48043B2
:100598001364554B1B6C03F480433B623B6A002396
:1005A800FB61514B1B6B504A43F0040313634E4BE2
:1005B8001B6B03F00403FB61FB690023BB614A4B1F
:1005C8001B6B494A43F002031363474B1B6B03F051
:1005D8000203BB61BB6904237B620223BB62002365
:1005E800FB6200233B6306237B6307F12403194660
:1005F8003E4800F033FD08237B620223BB620023E0
:10060800FB6200233B6305237B6307F12403194640
:10061800364800F023FD4FF4A0537B620223BB62EF
:100628000023FB6200233B6305237B6307F124035C
:1006380019462F4800F012FD4FE07B681B682D4AD1
:1006480093424AD100237B61274B1B6C264A43F413
:1006580000431364244B1B6C03F400437B617B69E8
:1006680000233B61204B1B6B1F4A43F001031363BC
:100678001D4B1B6B03F001033B613B690023FB60CF
:10068800194B1B6B184A43F004031363164B1B6B7F
:1006980003F00403FB60FB6810237B620223BB6248
:1006A8000023FB6200233B6306237B6307F12403DB
:1006B8001946114800F0D2FC4FF4A4537B62022380
:1006C800BB620023FB6200233B6306237B6307F1C5
:1006D80024031946054800F0C1FC00BF3837BD4661
:1006E80080BD00BF003800400038024000080240CA
:1006F80000040240003C00400000024080B582B087
:1007080000AF78607B681B68B3F1804F04D14FF469
:100718008041084800F07CFF7B681B68064A9342CA
:1007280004D14FF48051034800F072FF00BF08372E
:10073800BD4680BD000C02400000014080B500AFFE
:1007480000F0BEFA00F01EF8FFF75CFDFFF734FE7C
:10075800FFF7A8FEFFF7D4FE00F0A8F800F0CCF9E8
:1007680000F01CFA08F04CFA044804F0B7FD0448FD
:1007780004F0B4FD08F06AFAFCE700BFEC010020C1
:100788002C02002080B59AB000AF07F13803302260
:100798000021184608F0F2FE07F1240300221A602F
:1007A8005A609A60DA601A6107F10C0300221A6035
:1007B8005A609A60DA601A615A610023BB60314B53
:1007C8001B6C304A43F0805313642E4B1B6C03F0B0
:1007D8008053BB60BB6800237B602B4B1B682A4A95
:1007E80043F440431360284B1B6803F440437B6089
:1007F8007B680123BB634FF48033FB6302233B65B3
:100808004FF480037B650423BB656023FB650423E9
:100818003B6604237B6607F13803184603F042FB66
:100828000346002B01D000F031F80F237B6202232E
:10083800BB620023FB624FF4A0533B6300237B633E
:1008480007F124030121184603F04CFE0346002B50
:1008580001D000F01BF80123FB60C8237B6105234E
:100868003B610223BB6107F10C03184604F0F2F860
:100878000346002B01D000F009F800BF6837BD46D9
:1008880080BD00BF003802400070004080B400AF57
:1008980000BFBD4680BC704780B483B000AF7860AD
:1008A800396000BF0C37BD4680BC704780B500AFCB
:1008B800174B184A1A60164B4FF482725A60144B41
:1008C80000229A60124B0022DA60114B00221A6152
:1008D8000F4B00225A610E4B4FF400729A610C4B79
:1008E8000022DA610A4B00221A62094B00225A627E
:1008F800074B00229A62064B0A22DA62044804F087
:100908001DFB0346002B01D0FFF7C0FF00BF80BDD1
:10091800900100200030014080B58AB000AF7860B7
:1009280007F1140300221A605A609A60DA601A61AB
:100938007B681B68194A93422BD100233B61184BF3
:100948005B6C174A43F480535364154B5B6C03F498
:1009580080533B613B690023FB60114B1B6B104AC2
:1009680043F0010313630E4B1B6B03F00103FB60A1
:10097800FB68E0237B610223BB610023FB61032347
:100988003B6205237B6207F114031946054800F012
:1009980065FB00BF2837BD4680BD00BF0030014061
:1009A800003802400000024080B582B000AF00234A
:1009B8007B60104B5B6C0F4A43F4804353640D4BD0
:1009C8005B6C03F480437B607B6800233B60094BCE
:1009D8001B6C084A43F080531364064B1B6C03F0EE
:1009E80080533B603B68072000F0C8FA00BF083717
:1009F800BD4680BD0038024080B400AF00BFBD4690
:100A080080BC704780B400AFFEE780B400AFFEE75B
:100A180080B400AFFEE780B400AFFEE780B400AF5B
:100A280000BFBD4680BC704780B400AF00BFBD4664
:100A380080BC704780B400AF00BFBD4680BC704723
:100A480080B500AF00F08EF900BF80BD80B500AF63
:100A5800024804F0A3FC00BF80BD00BFEC010020E9
:100A680080B500AF024804F099FC00BF80BD00BF0C
:100A78002C02002080B500AF024801F08DF800BFBD
:100A880080BD00BF5006002080B584B000AF7860FC
:100A9800114B1B68002B02D10F4B104A1A600E4BEA
:100AA8001B68FB600C4B1A687B6813446A469342C8
:100AB80007D908F029FD03460C221A604FF0FF33CE
:100AC80006E0054B1A687B681344034A1360FB6809
:100AD80018461037BD4680BDE801002030090020C7
:100AE80080B400AF034B4FF000629A6000BFBD4670
:100AF80080BC704700ED00E080B586B000AF07F11C
:100B0800080300221A605A609A60DA603B460022A5
:100B18001A605A601F4B204A1A601E4B45F6BF5296
:100B28005A601C4B00229A601A4B4FF49672DA6096
:100B3800184B00221A61174B00225A61154B0022EC
:100B48009A61144804F028FB0346002B01D0FFF7F4
:100B58009DFE4FF48053BB6007F1080319460D480A
:100B680004F024FD0346002B01D0FFF78FFE00237D
:100B78003B6000237B603B461946064805F05AF95E
:100B88000346002B01D0FFF781FE00BF1837BD4692
:100B980080BD00BFEC0100200000014080B586B098
:100BA80000AF07F1080300221A605A609A60DA6001
:100BB8003B4600221A605A601E4B4FF080421A6072
:100BC8001C4B45F6BF525A601A4B00229A60194BCB
:100BD8004FF47A72DA60174B00221A61154B002223
:100BE8009A61144804F0D8FA0346002B01D0FFF7A5
:100BF8004DFE4FF48053BB6007F1080319460D48BA
:100C080004F0D4FC0346002B01D0FFF73FFE00237D
:100C18003B6000237B603B461946064805F00AF90D
:100C28000346002B01D0FFF731FE00BF1837BD4641
:100C380080BD00BF2C02002080B584B000AF786072
:100C48007B681B681C4A934216D10023FB601B4B30
:100C58005B6C1A4A43F001035364184B5B6C03F056
:100C68000103FB60FB6800220021192000F0A6F9AF
:100C7800192000F0CFF91AE07B681B68B3F1804FA8
:100C880015D10023BB600D4B1B6C0C4A43F00103CC
:100C980013640A4B1B6C03F00103BB60BB680022A2
:100CA80000211C2000F08AF91C2000F0B3F900BFD5
:100CB8001037BD4680BD00BF00000140003802402B
:100CC80080B500AF0E4B1B680D4A43F400731360E8
:100CD8000B4B1B680A4A43F480631360084B1B687C
:100CE800074A43F480731360032000F047F900209B
:100CF80000F008F8FFF758FE0023184680BD00BF33
:100D0800003C024080B582B000AF7860124B1A6890
:100D1800124B1B7819464FF47A73B3FBF1F3B2FB0D
:100D2800F3F3184600F08EF90346002B01D0012397
:100D38000EE07B680F2B0AD8002279684FF0FF304D
:100D480000F03CF9064A7B681360002300E00123A9
:100D580018460837BD4680BD000000200800002066
:100D68000400002080B400AF054B1B781A46054BE1
:100D78001B681344034A136000BFBD4680BC70471C
:100D8800080000206C02002080B400AF024B1B68F2
:100D98001846BD4680BC70476C02002080B584B000
:100DA80000AF7860FFF7F0FFB8607B68FB60FB6816
:100DB800B3F1FF3F05D00A4B1B781A46FB68134472
:100DC800FB6000BFFFF7E0FF0246BB68D31AFA6872
:100DD8009A42F7D800BF00BF1037BD4680BD00BF9C
:100DE8000800002080B485B000AF78607B6803F00D
:100DF8000703FB600C4BDB68BB60BA684FF6FF0368
:100E08001340BB60FB681A02BB68134343F0BF631F
:100E180043F40033BB60044ABB68D36000BF143797
:100E2800BD4680BC704700BF00ED00E080B400AF55
:100E3800044BDB681B0A03F007031846BD4680BC59
:100E4800704700BF00ED00E080B483B000AF0346F8
:100E5800FB7197F90730002B0BDBFB7903F01F02BE
:100E6800064997F907305B09012000FA02F241F8B8
:100E7800232000BF0C37BD4680BC704700E100E06E
:100E880080B483B000AF03463960FB7197F907302F
:100E9800002B0ADB3B68DAB20C4997F907301201DC
:100EA800D2B20B4483F800230AE03B68DAB208495F
:100EB800FB7903F00F03043B1201D2B20B441A76FC
:100EC80000BF0C37BD4680BC704700BF00E100E0A2
:100ED80000ED00E080B489B000AFF860B9607A60D6
:100EE800FB6803F00703FB61FB69C3F10703042BED
:100EF80028BF0423BB61FB690433062B02D9FB69B5
:100F0800033B00E000237B614FF0FF32BB6902FA2C
:100F180003F3DA43BB681A407B699A404FF0FF310C
:100F28007B6901FA03F3D9437B680B4013431846E6
:100F38002437BD4680BC704780B582B000AF78606A
:100F48007B68013BB3F1807F01D301230FE00A4A9C
:100F58007B68013B53600F214FF0FF30FFF790FF94
:100F6800054B00229A60044B07221A60002318469A
:100F78000837BD4680BD00BF10E000E080B582B0F4
:100F880000AF78607B68072B0FD07B68062B0CD0EE
:100F98007B68052B09D07B68042B06D07B68032B64
:100FA80003D092210448FFF777FC7868FFF71AFF0F
:100FB80000BF0837BD4680BD3897000880B586B0A9
:100FC80000AF0346B9607A60FB7300237B617B68DE
:100FD8000F2B03D9AA210E48FFF75EFCBB680F2B25
:100FE80003D9AB210A48FFF757FCFFF71FFF7861C9
:100FF8007A68B9687869FFF76DFF024697F90F308C
:1010080011461846FFF73CFF00BF1837BD4680BDA4
:101018003897000880B582B000AF0346FB7197F996
:101028000730002B03DABE210548FFF735FC97F996
:1010380007301846FFF708FF00BF0837BD4680BDD8
:101048003897000880B582B000AF78607868FFF7FD
:1010580073FF034618460837BD4680BD80B588B083
:1010680000AF7860396000237B6100233B61002377
:10107800BB617B683B4A934217D07B683A4A9342EC
:1010880013D07B68394A93420FD07B68384A934221
:101098000BD07B68374A934207D07B68364A934225
:1010A80003D0B3213548FFF7F7FB3B681B689BB2B9
:1010B800002B05D03B681B681B0C1B04002B03D0BE
:1010C800B4212E48FFF7E8FB3B685B68002B35D05E
:1010D8003B685B68012B31D03B685B68112B2DD0D6
:1010E8003B685B68022B29D03B685B68122B25D0D4
:1010F8003B685B68224A934220D03B685B68214A80
:1011080093421BD03B685B681F4A934216D03B68EA
:101118005B681E4A934211D03B685B681C4A934245
:101128000CD03B685B681B4A934207D03B685B68FE
:10113800032B03D0B5211148FFF7AEFB3B689B6832
:10114800002B0BD03B689B68012B07D03B689B6842
:10115800022B03D0B6210948FFF79EFB0023FB6151
:101168000CE200BF000002400004024000080240F8
:10117800000C024000100240001C02409897000832
:1011880000001110000021100000311000001210A2
:1011980000002210000032100122FB6902FA03F35A
:1011A8007B613B681B687A6913403B613A697B69DC
:1011B8009A4240F0E0813B685B68012B0BD03B68AA
:1011C8005B68022B07D03B685B68112B03D03B6838
:1011D8005B68122B44D13B68DB68002B0FD03B685F
:1011E800DB68012B0BD03B68DB68022B07D03B6820
:1011F800DB68032B03D0C8219348FFF74DFB7B68BE
:101208009B68BB61FB695B00032202FA03F3DB43C3
:10121800BA691340BB613B68DA68FB695B0002FA94
:1012280003F3BA691343BB617B68BA699A607B6848
:101238005B68BB610122FB6902FA03F3DB43BA690D
:101248001340BB613B685B681B0903F00102FB6943
:1012580002FA03F3BA691343BB617B68BA695A603F
:101268007B68DB68BB61FB695B00032202FA03F35E
:10127800DB43BA691340BB613B689A68FB695B0052
:1012880002FA03F3BA691343BB617B68BA69DA608F
:101298003B685B68022B04D03B685B68122B40F00C
:1012A800A0803B681B69002B77D03B681B69092B22
:1012B80073D03B681B69002B6FD03B681B69002B00
:1012C8006BD03B681B69002B67D03B681B69002B00
:1012D80063D03B681B69012B5FD03B681B69012BFE
:1012E8005BD03B681B69022B57D03B681B69022BFC
:1012F80053D03B681B69022B4FD03B681B69042BFA
:101308004BD03B681B69042B47D03B681B69042BF7
:1013180043D03B681B69052B3FD03B681B69052BF5
:101328003BD03B681B69052B37D03B681B69062BF4
:1013380033D03B681B69062B2FD03B681B69052BF4
:101348002BD03B681B69062B27D03B681B69072BF2
:1013580023D03B681B69072B1FD03B681B69072BF1
:101368001BD03B681B69082B17D03B681B690A2BED
:1013780013D03B681B69092B0FD03B681B69092BED
:101388000BD03B681B690C2B07D03B681B690F2BE4
:1013980003D0E0212C48FFF77FFAFB69DA087B6865
:1013A800083253F82230BB61FB6903F007039B0046
:1013B8000F2202FA03F3DB43BA691340BB613B68AF
:1013C8001A69FB6903F007039B0002FA03F3BA6981
:1013D8001343BB61FB69DA087B680832B96943F8D3
:1013E80022107B681B68BB61FB695B00032202FA61
:1013F80003F3DB43BA691340BB613B685B6803F0E6
:101408000302FB695B0002FA03F3BA691343BB6189
:101418007B68BA691A603B685B6803F08053002BED
:1014280000F0A9800023FB60084B5B6C074A43F47B
:1014380080435364054B5B6C03F48043FB60FB689B
:10144800034AFB699B0805E09897000800380240AA
:1014580000380140023352F82330BB61FB6903F0C6
:1014680003039B000F2202FA03F3DB43BA6913401C
:10147800BB617B68464A934219D07B68454A9342D0
:1014880013D07B68444A93420DD07B68434A934209
:1014980007D07B68424A934201D1042308E007231E
:1014A80006E0032304E0022302E0012300E0002316
:1014B800FA6902F0030292009340BA691343BB61D0
:1014C8003849FB699B080233BA6941F82320364B37
:1014D8001B68BB613B69DB43BA691340BB613B686E
:1014E8005B6803F48033002B03D0BA693B6913436C
:1014F800BB612D4ABB6913602B4B5B68BB613B69C1
:10150800DB43BA691340BB613B685B6803F4003393
:10151800002B03D0BA693B691343BB61224ABB69FC
:101528005360214B9B68BB613B69DB43BA6913403D
:10153800BB613B685B6803F48013002B03D0BA6976
:101548003B691343BB61184ABB699360164BDB6860
:10155800BB613B69DB43BA691340BB613B685B68AD
:1015680003F40013002B03D0BA693B691343BB6132
:101578000D4ABB69D360FB690133FB61FB690F2B23
:101588007FF60AAE00BF00BF2037BD4680BD00BF52
:10159800000002400004024000080240000C024023
:1015A8000010024000380140003C014080B582B084
:1015B80000AF78600B467B8013467B707B88002BDE
:1015C80004D07B881B0C1B04002B04D040F29F1115
:1015D8000E48FFF761F97B78002B07D07B78012B49
:1015E80004D04FF4D0710948FFF756F97B78002BE7
:1015F80003D07A887B689A6103E07B881A047B6849
:101608009A6100BF0837BD4680BD00BF98970008A3
:1016180080B582B000AF78600B467B807B88002B5A
:1016280004D07B881B0C1B04002B04D04FF4DB7107
:101638000A48FFF731F97B685A697B881A407B882A
:101648009A4204D17B881A047B689A6102E07A88FE
:101658007B689A6100BF0837BD4680BD989700082F
:10166800F0B58FB00AAF78607B68002B01D10123F9
:101678005DE07B681B68B3F1A04F03D07A212E4848
:10168800FFF70AF97B681B68FB607B6893F8B9323F
:10169800DBB2002B06D17B68002283F8B822786879
:1016A80007F00AFB7B68032283F8B922FB68DB6B2F
:1016B80003F48073002B02D17B6800221A617B68D7
:1016C8001B68184604F0F7FC7B681B683B607E6863
:1016D8006D4606F110040FCC0FC50FCC0FC594E86A
:1016E800030085E80300331D0ECB386804F072FC54
:1016F8007B681B680121184604F0EDFC7B681B68B9
:101708003B607E686D4606F110040FCC0FC50FCC08
:101718000FC594E8030085E80300331D0ECB386835
:1017280004F0F6FD7B68012283F8B92200231846ED
:101738001437BD46F0BD00BFF497000890B589B0D6
:1017480004AF7860084611461A460346FB700B46FC
:10175800BB7013467B707B6893F8B832012B01D1BC
:1017680002237FE07B68012283F8B822FA7879683F
:1017780013469B001344DB000B443D3300221A70D0
:10178800FA78796813469B001344DB000B4438331E
:101798007A781A70FA78796813469B001344DB004C
:1017A8000B4440333A8D1A80FA78796813469B00C7
:1017B8001344DB000B443933FA781A70FA787968E5
:1017C80013469B001344DB000B443F3397F8242057
:1017D8001A70FA78BB7803F07F03D8B27968134699
:1017E8009B001344DB000B443A3302461A7097F906
:1017F8000230002B0ADAFA78796813469B00134402
:10180800DB000B443B3301221A7009E0FA7879684F
:1018180013469B001344DB000B443B3300221A7031
:10182800FA78796813469B001344DB000B443C3379
:1018380097F820201A707B6818687C78BA78F9784D
:101848003B8D029397F82430019397F8203000934A
:10185800234604F0DBFE0346FB737B68002283F813
:10186800B822FB7B18461437BD4690BD80B584B0BE
:1018780000AF78600B46FB700023FB737B6893F81E
:10188800B832012B01D102230FE07B68012283F8D3
:10189800B8227B681B68FA781146184605F010F9DB
:1018A8007B68002283F8B822FB7B18461037BD46B8
:1018B80080BD000080B582B000AF78600846114650
:1018C8001A460346FB700B46BB7013467B70FA78CA
:1018D800796813469B001344DB000B443B33BA780A
:1018E8001A70FA78796813469B001344DB000B449E
:1018F8003F337A781A703B7C002B14D1FA787968D8
:1019080013469B001344DB000B44423303221A7036
:10191800FA78796813469B001344DB000B443D3387
:101928003A7F1A7009E0FA78796813469B001344E5
:10193800DB000B44423302221A707B78032B00F23F
:10194800D68001A252F823F061190008E11A0008B4
:10195800CD190008571A00083B7C012B40F0C980BC
:10196800BB78002B40F0C5803B8B002B09D1FA785F
:10197800796813469B001344DB000B445133012262
:101988001A70FA78796813469B001344DB000B44FD
:1019980051331B78002B0AD1FA78796813469B00DB
:1019A8001344DB000B44423300221A70A1E0FA789A
:1019B800796813469B001344DB000B444233022230
:1019C8001A7096E0BB78002B20D1FA787968134614
:1019D8009B001344DB000B4451331B78002B0AD1C6
:1019E800FA78796813469B001344DB000B444233B2
:1019F80000221A707EE0FA78796813469B00134437
:101A0800DB000B44423302221A7073E0FA787968DB
:101A180013469B001344DB000B4450331B78002B08
:101A28000AD1FA78796813469B001344DB000B440B
:101A3800423300221A705DE0FA78796813469B00F9
:101A48001344DB000B44423302221A7052E0BB7885
:101A5800002B20D1FA78796813469B001344DB00E9
:101A68000B4451331B78002B0AD1FA787968134656
:101A78009B001344DB000B44423300221A7039E008
:101A8800FA78796813469B001344DB000B44423311
:101A980002221A702EE0FA78796813469B001344E4
:101AA800DB000B4450331B78002B0AD1FA78796895
:101AB80013469B001344DB000B44423300221A7088
:101AC80018E0FA78796813469B001344DB000B444E
:101AD800423302221A700DE0FA78796813469B00A7
:101AE8001344DB000B44423300221A7002E000BFAB
:101AF80000E000BFFA78796813469B001344DB00C6
:101B08000B4444337A691A60FA78398B786813463B
:101B18009B001344DB00034448331960FA78796862
:101B280013469B001344DB000B445C3300221A70FD
:101B3800FA78796813469B001344DB000B444C3356
:101B480000221A60FA78796813469B001344DB0078
:101B58000B443933FA781A70FA78796813469B007F
:101B68001344DB000B445D3300221A707B6818684D
:101B7800FA7813469B001344DB0038337A68D1188F
:101B88007B681B69DBB21A4604F048FE0346184618
:101B98000837BD4680BD00BF80B586B000AF78600D
:101BA8007B681B683B613B69FB607B681B68184668
:101BB80004F06EFB0346012B40F0EF807B681B6846
:101BC800184604F053FB0346002B00F0E5807B68C1
:101BD8001B68184604F04AFB034603F40013B3F5E8
:101BE800001F04D17B681B684FF400125A617B68A0
:101BF8001B68184604F03AFB034603F48013B3F558
:101C0800801F04D17B681B684FF480125A617B687F
:101C18001B68184604F02AFB034603F08063B3F1FF
:101C2800806F04D17B681B684FF080625A617B68C3
:101C38001B68184604F01AFB034603F00203022B44
:101C480003D17B681B6802225A617B681B681846AF
:101C580004F00CFB034603F00053B3F1005F15D109
:101C68007B681B684FF000525A61FB6803F5886374
:101C78001B6803F00103002B08D1786807F09AF875
:101C88007B681B680121184604F0FEFB7B681B6813
:101C9800184604F0EBFA034603F08073B3F1807F33
:101CA80002D1786801F066F97B681B68184604F071
:101CB800DDFA034603F00803082B06D1786807F01D
:101CC8005DF87B681B6808225A617B681B681846A8
:101CD80004F0CCFA034603F00073B3F1007F38D167
:101CE8007B681B68184604F0DBFEB86000237B6144
:101CF80025E07B6903F00F03BA6822FA03F303F0C7
:101D08000103002B18D07B695A01FB68134403F5C3
:101D1800A0631B6803F40043B3F5004F06D17B6949
:101D2800DBB21946786800F0CDF805E07B69DBB2D4
:101D38001946786800F0FBFC7B6901337B617B689E
:101D48009B687A699A42D4D37B681B684FF000720B
:101D58005A617B681B68184604F088FA034603F04A
:101D68001003102B01D1012300E00023002B14D015
:101D78007B681B689A697B681B6822F010029A616D
:101D8800786801F049F87B681B689A697B681B686A
:101D980042F010029A6100E000BF1837BD4680BDCE
:101DA80080B582B000AF78607B6893F8B832012BB9
:101DB80001D1022313E07B68012283F8B8227B68F3
:101DC8001B68184604F067F97B681B6801211846F0
:101DD80004F0BDFB7B68002283F8B8220023184674
:101DE8000837BD4680BD80B582B000AF78607B689B
:101DF80093F8B832012B01D102230DE07B68012250
:101E080083F8B8227B681B68184604F091FF7B684A
:101E1800002283F8B822002318460837BD4680BD43
:101E280080B582B000AF78607B681B68184604F004
:101E380064FB034618460837BD4680BD80B483B0AE
:101E480000AF78600B46FB70FA78796813469B0000
:101E58001344DB000B445C331B7818460C37BD4633
:101E680080BC704780B483B000AF78600B46FB70CD
:101E7800FA78796813469B001344DB000B444C3313
:101E88001B6818460C37BD4680BC704780B582B0C9
:101E980000AF78607B681B68184604F0A6FB034611
:101EA80018460837BD4680BD80B582B000AF78605F
:101EB8007B681B68184604F082FB034618460837FF
:101EC800BD4680BD80B586B000AF78600B46FB701C
:101ED8007B681B687B617B693B61FB78FB60FB6807
:101EE8005A013B69134403F5A0639B6803F004039C
:101EF800042B19D1FB685A013B69134403F5A0630D
:101F08001A4604239360FB685A013B69134403F59E
:101F1800A063DB68FA6851013A690A4402F5A062D5
:101F280043F00203D360CEE0FB685A013B691344D7
:101F380003F5A0639B6803F48073B3F5807F2CD10D
:101F4800FB685A013B69134403F5A0631A464FF432
:101F5800807393607968FA6813469B001344DB002A
:101F68000B445D3307221A70FB685A013B6913441E
:101F780003F5A063DB68FA6851013A690A4402F57F
:101F8800A06243F00203D3607B681B68FA68D2B290
:101F98001146184604F094FD95E0FB685A013B6928
:101FA800134403F5A0639B6803F02003202B09D199
:101FB800FB685A013B69134403F5A0631A462023C2
:101FC800936080E0FB685A013B69134403F5A06302
:101FD8009B6803F00803082B34D1FB685A013B695E
:101FE800134403F5A063DB68FA6851013A690A44AF
:101FF80002F5A06243F00203D3607968FA681346D9
:102008009B001344DB000B445D3305221A70FB6808
:102018005A013B69134403F5A0631A4610239360E1
:10202800FB685A013B69134403F5A0631A46082369
:1020380093607B681B68FA68D2B21146184604F0B0
:102048003FFD40E0FB685A013B69134403F5A06378
:102058009B6803F48063B3F5806F34D1FB685A0141
:102068003B69134403F5A063DB68FA6851013A69D8
:102078000A4402F5A06243F00203D3607B681B6840
:10208800FA68D2B21146184604F01AFDFB685A01E4
:102098003B69134403F5A0631A46102393607968DB
:1020A800FA6813469B001344DB000B445D33082297
:1020B8001A70FB685A013B69134403F5A0631A467A
:1020C8004FF480639360FB685A013B69134403F53E
:1020D800A0639B6803F40073B3F5007F22D1FB680B
:1020E8005A013B69134403F5A063DB68FA685101A0
:1020F8003A690A4402F5A06243F00203D3607B68A0
:102108001B68FA68D2B21146184604F0D9FCFB687D
:102118005A013B69134403F5A0631A464FF4007350
:10212800936000E3FB685A013B69134403F5A0631D
:102138009B6803F00103012B40F0FD807B681B695D
:10214800002B1BD07968FA6813469B001344DB0008
:102158000B4448331A68FB6859013B690B4403F583
:10216800A0631B69C3F31203D11A7868FA6813468F
:102178009B001344DB0003444C3319607968FA6808
:1021880013469B001344DB000B445D3301221A7095
:102198007968FA6813469B001344DB000B445833F4
:1021A80000221A60FB685A013B69134403F5A063D7
:1021B8001A46012393607968FA6813469B00134412
:1021C800DB000B443F331B78002B0AD07968FA6890
:1021D80013469B001344DB000B443F331B78022B50
:1021E80021D1FB685A013B69134403F5A063DB68FE
:1021F800FA6851013A690A4402F5A06243F0020301
:10220800D3607B681B68FA68D2B21146184604F09E
:1022180057FCFB685A013B69134403F5A0631A464F
:102228001023936070E07968FA6813469B001344A2
:10223800DB000B443F331B78032B2AD1FB685A0180
:102248003B69134403F5A0631B68FA6851013A69B6
:102258000A4402F5A06243F0005313607968FA68F3
:1022680013469B001344DB000B445C3301221A70B5
:10227800FB68D8B27968FA6813469B001344DB0000
:102288000B445C331B781A460146786806F0A0FDBB
:102298003AE07968FA6813469B001344DB000B4464
:1022A8003F331B78012B2FD17968FA6813469B00BE
:1022B8001344DB000B445C3301221A707968FA6816
:1022C80013469B001344DB000B4450331B7883F008
:1022D8000103D8B27968FA6813469B001344DB00FF
:1022E8000B44503302461A70FB68D8B27968FA6812
:1022F80013469B001344DB000B445C331B781A46DF
:102308000146786806F064FD7968FA6813469B0010
:102318001344DB000B4450331B7883F00103D8B21D
:102328007968FA6813469B001344DB000B4450336A
:1023380002461A70F7E1FB685A013B69134403F53A
:10234800A0639B6803F00203022B40F01A81FB682C
:102358005A013B69134403F5A063DB68FA6851012D
:102368003A690A4402F5A06223F00203D36079684F
:10237800FA6813469B001344DB000B445D331B785B
:10238800012B0AD17968FA6813469B001344DB00D5
:102398000B445C3301221A70D9E07968FA68134655
:1023A8009B001344DB000B445D331B78052B0AD1DB
:1023B8007968FA6813469B001344DB000B445C33CE
:1023C80005221A70C3E07968FA6813469B00134423
:1023D800DB000B445D331B78062B0AD07968FA685A
:1023E80013469B001344DB000B445D331B78082B1A
:1023F80056D17968FA6813469B001344DB000B44F6
:1024080058331B68591C7868FA6813469B001344B4
:10241800DB000344583319607968FA6813469B0057
:102428001344DB000B4458331B68032B14D9796819
:10243800FA6813469B001344DB000B445833002210
:102448001A607968FA6813469B001344DB000B4452
:102458005C3304221A7009E07968FA6813469B0015
:102468001344DB000B445C3302221A70FB685A01E8
:102478003B69134403F5A0631B68BB60BB6823F08A
:102488008043BB60BB6843F00043BB60FB685A01F4
:102498003B69134403F5A0631A46BB68136056E012
:1024A8007968FA6813469B001344DB000B445D33DC
:1024B8001B78032B23D17968FA6813469B001344D1
:1024C800DB000B445C3302221A70FB685A013B693B
:1024D800134403F5A0631B68BB60BB6823F080430B
:1024E800BB60BB6843F00043BB60FB685A013B69B3
:1024F800134403F5A0631A46BB68136027E07968A4
:10250800FA6813469B001344DB000B445D331B78C9
:10251800072B1CD17968FA6813469B001344DB002B
:102528000B4458331B68591C7868FA6813469B009B
:102538001344DB000344583319607968FA6813467A
:102548009B001344DB000B445C3304221A70FB68C5
:102558005A013B69134403F5A0631A4602239360AA
:10256800FB68D8B27968FA6813469B001344DB000D
:102578000B445C331B781A460146786806F028FC41
:10258800D1E0FB685A013B69134403F5A0639B68DB
:1025980003F08003802B3ED1FB685A013B6913444A
:1025A80003F5A063DB68FA6851013A690A4402F549
:1025B800A06243F00203D3607968FA6813469B006F
:1025C8001344DB000B4458331B68591C7868FA68BD
:1025D80013469B001344DB000344583319607968A1
:1025E800FA6813469B001344DB000B445D33062254
:1025F8001A707B681B68FA68D2B21146184604F054
:102608005FFAFB685A013B69134403F5A0631A4655
:102618008023936087E0FB685A013B69134403F504
:10262800A0639B6803F01003102B7CD17968FA68CB
:1026380013469B001344DB000B443F331B78032BEA
:1026480022D17968FA6813469B001344DB000B44D7
:10265800583300221A60FB685A013B69134403F59A
:10266800A063DB68FA6851013A690A4402F5A0627E
:1026780043F00203D3607B681B68FA68D2B2114644
:10268800184604F01DFA45E07968FA6813469B007D
:102698001344DB000B443F331B78002B0AD07968C6
:1026A800FA6813469B001344DB000B443F331B7846
:1026B800022B2FD17968FA6813469B001344DB007C
:1026C8000B44583300221A607B681B69002B21D108
:1026D8007968FA6813469B001344DB000B445D33AA
:1026E80003221A70FB685A013B69134403F5A0637F
:1026F800DB68FA6851013A690A4402F5A06243F0BE
:102708000203D3607B681B68FA68D2B21146184688
:1027180004F0D6F9FB685A013B69134403F5A0633A
:102728001A461023936000BF1837BD4680BD80B598
:1027380086B000AF78600B46FB707B681B687B61D6
:102748007B693B61FB78FB60FB685A013B6913447A
:1027580003F5A0639B6803F00403042B19D1FB68FD
:102768005A013B69134403F5A0631A460423936096
:10277800FB685A013B69134403F5A063DB68FA68F8
:1027880051013A690A4402F5A06243F00203D3609A
:102798003EE3FB685A013B69134403F5A0639B6859
:1027A80003F02003202B41D1FB685A013B691344F5
:1027B80003F5A0631A46202393607968FA681346E4
:1027C8009B001344DB000B443D331B78012B40F086
:1027D8001F837968FA6813469B001344DB000B4497
:1027E8003D3300221A707968FA6813469B00134437
:1027F800DB000B445C3302221A70FB685A013B6908
:10280800134403F5A063DB68FA6851013A690A4486
:1028180002F5A06243F00203D3607B681B68FA6884
:10282800D2B21146184604F04BF9F1E2FB685A019E
:102838003B69134403F5A0639B6803F04003402BF6
:102848003FD17968FA6813469B001344DB000B44B8
:102858005D3304221A707968FA6813469B001344A2
:10286800DB000B443D3301221A707968FA6813467D
:102878009B001344DB000B44583300221A60FB68AA
:102888005A013B69134403F5A063DB68FA685101F8
:102898003A690A4402F5A06243F00203D3607B68F8
:1028A8001B68FA68D2B21146184604F009F9FB68A9
:1028B8005A013B69134403F5A0631A464023936009
:1028C800A6E2FB685A013B69134403F5A0639B68C1
:1028D80003F40073B3F5007F22D1FB685A013B690A
:1028E800134403F5A063DB68FA6851013A690A44A6
:1028F80002F5A06243F00203D3607B681B68FA68A4
:10290800D2B21146184604F0DBF8FB685A013B695D
:10291800134403F5A0631A464FF40073936077E2FB
:10292800FB685A013B69134403F5A0639B6803F0F5
:102938000103012B35D17968FA6813469B001344CB
:10294800DB000B44583300221A60FB685A013B69CC
:10295800134403F5A063DB68FA6851013A690A4435
:1029680002F5A06243F00203D3607B681B68FA6833
:10297800D2B21146184604F0A3F8FB685A013B6925
:10298800134403F5A0631A46012393607968FA6833
:1029980013469B001344DB000B445D3301221A707D
:1029A80036E2FB685A013B69134403F5A0639B6850
:1029B80003F00803082B2BD1FB685A013B69134429
:1029C80003F5A0631A4608239360FB685A013B6924
:1029D800134403F5A063DB68FA6851013A690A44B5
:1029E80002F5A06243F00203D3607B681B68FA68B3
:1029F800D2B21146184604F063F87968FA681346AB
:102A08009B001344DB000B445D3305221A70FFE181
:102A1800FB685A013B69134403F5A0639B6803F004
:102A28001003102B55D17968FA6813469B0013449C
:102A3800DB000B44583300221A607968FA681346A1
:102A48009B001344DB000B445D3303221A70796842
:102A5800FA6813469B001344DB000B443D331B7894
:102A6800002B14D17968FA6813469B001344DB00E5
:102A78000B443C331B78002B09D17968FA6813465C
:102A88009B001344DB000B443D3301221A70FB68A2
:102A98005A013B69134403F5A063DB68FA685101E6
:102AA8003A690A4402F5A06243F00203D3607B68E6
:102AB8001B68FA68D2B21146184604F001F8FB68A0
:102AC8005A013B69134403F5A0631A461023936027
:102AD8009EE1FB685A013B69134403F5A0639B68B8
:102AE80003F08003802B2BD1FB685A013B69134408
:102AF80003F5A063DB68FA6851013A690A4402F5F4
:102B0800A06243F00203D3607B681B68FA68D2B204
:102B18001146184603F0D4FF7968FA6813469B00FB
:102B28001344DB000B445D3306221A70FB685A011C
:102B38003B69134403F5A0631A468023936067E159
:102B4800FB685A013B69134403F5A0639B6803F4CF
:102B58008063B3F5806F35D1FB685A013B69134434
:102B680003F5A063DB68FA6851013A690A4402F583
:102B7800A06243F00203D3607B681B68FA68D2B294
:102B88001146184603F09CFFFB685A013B69134441
:102B980003F5A0631A4610239360FB685A013B694A
:102BA800134403F5A0631A464FF480639360796871
:102BB800FA6813469B001344DB000B445D3308227C
:102BC8001A7025E1FB685A013B69134403F5A063B9
:102BD8009B6803F00203022B40F01A81FB685A013C
:102BE8003B69134403F5A063DB68FA6851013A694D
:102BF8000A4402F5A06223F00203D3607968FA68F8
:102C080013469B001344DB000B445D331B78012BF8
:102C180037D17968FA6813469B001344DB000B44EC
:102C28005C3301221A707968FA6813469B001344D2
:102C3800DB000B443F331B78022B0BD07968FA6812
:102C480013469B001344DB000B443F331B78032BD4
:102C580040F0C5807968FA6813469B001344DB008E
:102C68000B4451331B7883F00103D8B27968FA68B2
:102C780013469B001344DB000B44513302461A7081
:102C8800ADE07968FA6813469B001344DB000B44F7
:102C98005D331B78032B0AD17968FA6813469B00C9
:102CA8001344DB000B445C3302221A7097E0796806
:102CB800FA6813469B001344DB000B445D331B7812
:102CC800042B0AD17968FA6813469B001344DB0089
:102CD8000B445C3302221A7081E07968FA68134663
:102CE8009B001344DB000B445D331B78052B0AD192
:102CF8007968FA6813469B001344DB000B445C3385
:102D080005221A706BE07968FA6813469B00134431
:102D1800DB000B445D331B78062B0AD07968FA6810
:102D280013469B001344DB000B445D331B78082BD0
:102D380055D17968FA6813469B001344DB000B44AD
:102D480058331B68591C7868FA6813469B0013446B
:102D5800DB000344583319607968FA6813469B000E
:102D68001344DB000B4458331B68032B14D97968D0
:102D7800FA6813469B001344DB000B4458330022C7
:102D88001A607968FA6813469B001344DB000B4409
:102D98005C3304221A7009E07968FA6813469B00CC
:102DA8001344DB000B445C3302221A70FB685A019F
:102DB8003B69134403F5A0631B68BB60BB6823F041
:102DC8008043BB60BB6843F00043BB60FB685A01AB
:102DD8003B69134403F5A0631A46BB681360FB689C
:102DE8005A013B69134403F5A0631A460223936012
:102DF800FB68D8B27968FA6813469B001344DB0075
:102E08000B445C331B781A460146786805F0E0FFEE
:102E180000BF1837BD4680BD80B58AB000AF786066
:102E28007B681B687B627B6A3B627B681B681B6AEA
:102E3800FB61FB6903F00F03BB61FB695B0C03F0EB
:102E48000F037B61FB691B09C3F30A033B617B69C1
:102E5800022B04D07B69052B00F0828083E03B695C
:102E6800002B7FD07968BA6913469B001344DB00B6
:102E78000B4444331B68002B74D07B68186879684E
:102E8800BA6913469B001344DB000B4444331B68A8
:102E98003A6992B2194603F0C1F97968BA691346DA
:102EA8009B001344DB000B4444331A683B69D11878
:102EB8007868BA6913469B001344DB000344443323
:102EC80019607968BA6913469B001344DB000B4408
:102ED8004C331A683B69D1187868BA6913469B0065
:102EE8001344DB0003444C331960BB695A013B6A45
:102EF800134403F5A0631A691D4B1340002B31D00E
:102F0800BB695A013B6A134403F5A0631B68FB6065
:102F1800FB6823F08043FB60FB6843F00043FB60E1
:102F2800BB695A013B6A134403F5A0631A46FB6860
:102F380013607968BA6913469B001344DB000B449D
:102F480050331B7883F00103D8B27968BA69134605
:102F58009B001344DB000B44503302461A7001E017
:102F680000BF00E000BF00BF2837BD4680BD00BFDE
:102F78000000F81F80B586B000AF78607B681B68DA
:102F88007B617B693B613B6903F588631B68FB6078
:102F98003B6903F588631B68BB60BB6823F02E039D
:102FA800BB60FB6803F00203022B0BD1FB6803F044
:102FB8000103012B02D1786805F0EEFEBB6843F0EF
:102FC8000203BB60FB6803F00803082B32D1BB681F
:102FD80043F00803BB60FB6803F00403042B26D10D
:102FE8007B689B69022B13D1FB6803F4C023B3F5FC
:102FF800802F06D17B681B680221184603F044FA2B
:1030080011E07B681B680121184603F03DFA0AE0CD
:103018007B68DB68012B06D13B6903F580631A46A0
:103028004EF660235360786805F0DFFE02E07868AA
:1030380005F0E9FEFB6803F02003202B03D1BB68F1
:1030480043F02003BB603B6903F588631A46BB68FD
:10305800136000BF1837BD4680BD000080B584B03E
:1030680000AF78607B68002B01D10123BDE17B684C
:103078001B68934A93420ED07B681B68914A93421F
:1030880009D07B681B68904A934204D040F2BD1176
:103098008E48FDF701FC7B685B68002B04D07B68D9
:1030A8005B688B4A934204D94FF4DF718748FDF778
:1030B800F3FB7B689B68002B09D07B689B68B3F5A2
:1030C800804F04D040F2BF118048FDF7E5FB7B68D4
:1030D800DB6823F47F7323F00303002B04D04FF441
:1030E800E0717A48FDF7D8FB7B681B69B3F5804F20
:1030F80009D07B681B69B3F5404F04D040F2C11179
:103108007248FDF7C9FB7B685B69002B08D07B68B8
:103118005B69012B04D04FF4E1716C48FDF7BCFBEF
:103128007B689B6923F0FE03002B04D040F2C31197
:103138006648FDF7B1FB7B68DB69002B08D07B682C
:10314800DB69402B04D04FF4E2716048FDF7A4FB23
:103158007B681B6A002B08D07B681B6A802B04D015
:1031680040F2C5115948FDF797FB7B6893F83D304D
:10317800DBB2002B06D17B68002283F83C207868FC
:10318800FDF748F97B68242283F83D207B681B689B
:103198001A687B681B6822F001021A607B681B684A
:1031A8001A687B681B6842F400421A607B681B68D7
:1031B8001A687B681B6822F400421A6001F036FC2A
:1031C800F8607B685B68434A934207D8FB68424AC9
:1031D800934294BF01230023DBB206E0FB683F4A19
:1031E800934294BF01230023DBB2002B01D00123BB
:1031F800FBE0FB683A4AA2FB03239B0CBB607B689D
:103208001B685B6823F03F017B681B68BA680A4348
:103218005A607B681B681B6A23F03F017B685B6808
:103228002C4A934202D8BB68013309E0BB684FF4CB
:10323800967202FB03F32B4AA2FB03239B0901337B
:103248007A6812680B4313627B681B68DB6923F496
:103258004F4222F0FF027B685B681E498B4219D8F7
:10326800FB68591E7B685B685B00B1FBF3F3591C74
:1032780040F6FC730B40002B0AD0FB68591E7B6894
:103288005B685B00B1FBF3F30133C3F30B0365E049
:10329800042363E07B689B68002B25D1FB68581EDC
:1032A8007B6859680B465B000B44B0FBF3F30133B2
:1032B800C3F30B03002B0CBF01230023DBB226E072
:1032C8000054004000580040005C0040509800083E
:1032D800801A0600A08601007F841E00FF083D00BA
:1032E80083DE1B43D34D6210FB68581E7B68596808
:1032F8000B469B000B4499000B44B0FBF3F30133DE
:10330800C3F30B03002B0CBF01230023DBB2002BFC
:1033180001D0012322E07B689B68002B0ED1FB685B
:10332800581E7B6859680B465B000B44B0FBF3F3EF
:103338000133C3F30B0343F400430FE0FB68581E4B
:103348007B6859680B469B000B4499000B44B0FB03
:10335800F3F30133C3F30B0343F44043796809687B
:103368001343CB617B681B681B6823F0C0017B6833
:10337800DA697B681B6A1A437B681B680A431A6010
:103388007B681B689B6823F4034323F0FF037A6878
:1033980011697A68D26811437A6812680B4393609E
:1033A8007B681B68DB6823F0FF017B685A697B68D0
:1033B8009B691A437B681B680A43DA607B681B6851
:1033C8001A687B681B6842F001021A607B68002259
:1033D8001A647B68202283F83D207B6800221A63E8
:1033E8007B68002283F83E20002318461037BD462C
:1033F80080BD00BF80B588B000AF78607B68002BC7
:1034080001D10123E7E17B681B68924A934218D0F7
:103418007B681B68904A934213D07B681B688F4A6D
:1034280093420ED07B681B688D4A934209D07B6813
:103438001B688C4A934204D040F21B118A48FDF75E
:103448002BFA7B685B68002B13D07B685B68B3F54D
:10345800807F0ED07B685B68B3F5007F09D07B68FE
:103468005B68B3F5407F04D04FF48E717E48FDF75A
:1034780013FA7B689B68002B14D07B689B68102B21
:1034880010D07B689B68202B0CD07B689B68302B06
:1034980008D07B689B68B02B04D040F21D1172489D
:1034A800FDF7FAF97B68DB68002B10D07B68DB68D6
:1034B800012B0CD07B68DB68032B08D07B68DB68AA
:1034C800052B04D04FF48F716748FDF7E5F97B6849
:1034D8001B69B3F5007F08D07B681B69002B04D0FB
:1034E80040F21F116048FDF7D7F97B685B69B3F5B7
:1034F800FA5F04D37B685B695C4A934208D97B68AE
:103508005B69022B04D04FF490715748FDF7C4F95A
:103518007B689B69002B08D07B689B69082B04D0CB
:1035280040F221115048FDF7B7F97B68DB69012BA0
:1035380008D07B68DB69002B04D04FF491714A48AE
:10354800FDF7AAF97B6893F84130DBB2002B09D16B
:103558007B68002283F840207B68454A5A63786874
:10356800FCF7FEFF7B68022283F841207B681B681A
:10357800DB697A68126823F47B6323F00F03D36155
:103588007B681B6802221A627B685B69022B73D016
:103598007B68DB68002B02D110237B6101E02023CC
:1035A8007B617B689B68202B02D87B695B007B6111
:1035B800012001F065FCF8607B681B69B3F5007FAA
:1035C80025D17B68DB68002B10D07B699B00FA68EB
:1035D800B2FBF3F213469B0013445B001A467B6868
:1035E8005B69B2FBF3F305333B611FE07B69DB00EA
:1035F800FA68B2FBF3F213469B0013445B001A46C9
:103608007B685B69B2FBF3F305333B610EE0FA6854
:103618007B69B2FBF3F213469B0013445B001A4626
:103628007B685B69B2FBF3F305333B613B69114A85
:10363800A2FB0323DB083B613B6903F00103BB6189
:103648003A69BB69D31A5B08FB61BB691B02BB61A2
:1036580016E000BF0030014000380040003C004048
:103668000034014000500140AC98000800EE020010
:10367800E9380008CDCCCCCC0223FB610023BB6128
:10368800FB69012B02D9FB69FF2B07D97B685B6CAF
:1036980043F010027B685A6401239CE07B681A6936
:1036A800BB6942EA03017B681B68FA690A431A622C
:1036B8007B681B68DB6923F47B6323F00F037A685C
:1036C80051687A68926811437A68D26811437A68B7
:1036D80092690A431A437B681B6842F40062DA6104
:1036E8007B681B6A002B08D07B681B6A012B04D0FF
:1036F80040F2BD113A48FDF7CFF87B681B6A012BF1
:1037080061D17B68374A5A637B681B68364A9342A3
:1037180001D1364B01E04FF04023DB697A6812682B
:1037280031498A4201D1314A01E04FF0402223F465
:103738007B6323F00F03D3617B681B682A4A93429B
:1037480001D12A4B01E04FF0402302221A627B6824
:103758001B68254A934201D1244B01E04FF04023D6
:10376800DB697B817B685B68B3F5007F03D07B688E
:103778005B68002B03D14FF480733B6101E00023A9
:103788003B613B699AB27B689B6899B27B68DB684E
:1037980098B27B689B699BB203439BB20B439BB275
:1037A80013439AB27B8913439BB243F400637B8132
:1037B8007B681B680C4A934201D10C4B01E04FF027
:1037C80040237A89DA617B6800225A647B68012287
:1037D80083F84120002318462037BD4680BD00BF2E
:1037E800AC980008FD39000800380040003400405B
:1037F80080B483B000AF786000BF0C37BD4680BC92
:10380800704780B483B000AF786000BF0C37BD4606
:1038180080BC704780B483B000AF786000BF0C37BD
:10382800BD4680BC704780B582B000AF78607B68C9
:103838005B6A1A887B681B68DA607B685B6A9A1C1B
:103848007B685A627B685B8D9BB2013B9AB27B684E
:103858005A857B685B8D9BB2002B0ED17B681B68F9
:103868005A687B681B6822F0A0025A607B680122B4
:1038780083F841207868FFF7BBFF00BF0837BD46D3
:1038880080BD80B582B000AF78607B681B68DA685D
:103898007B68DB6A92B21A807B68DB6A9A1C7B6859
:1038A800DA627B685B8E9BB2013B9AB27B685A8670
:1038B8007B685B8E9BB2002B0ED17B681B685A68B5
:1038C8007B681B6822F060025A607B68012283F8DB
:1038D80041207868FFF795FF00BF0837BD4680BDD7
:1038E80080B586B000AF78607B681B689B687B6199
:1038F8007B6893F84130DBB2042B3AD17B6903F043
:103908000103012B09D17B681B685B6803F0400346
:10391800402B02D17868FFF7B4FF7B6903F04003BE
:10392800402B26D17B681B685B6803F02003202BA3
:103938001FD17B681B685A687B681B6822F060028D
:103948005A6000233B617B681B68DB683B617B68CE
:103958001B689B683B613B697B68012283F84120B7
:103968007B685B6C43F002027B685A647868FFF7F7
:1039780051FF7B6893F84130DBB2032B36D17B696A
:1039880003F00203022B09D17B681B685B6803F014
:103998008003802B02D17868FFF745FF7B6903F02D
:1039A8000803082B22D17B681B685B6803F020039F
:1039B800202B1BD17B681B685A687B681B6822F028
:1039C800A0025A600023FB607B681B689B68FB6051
:1039D800FB687B68012283F841207B685B6C43F0BD
:1039E80004027B685A647868FFF714FF00BF183731
:1039F800BD4680BD80B588B000AF78607B681B6825
:103A08009B68FB617B681B68924A934201D1924B89
:103A180001E04FF040239B68BB617B681B685B68D3
:103A28007B617B681B688B4A934201D18A4B01E01A
:103A38004FF040235B683B617B685B68B3F5007FB0
:103A480004D07B685B68002B40F09980FB6903F029
:103A58000203022B07D17B6903F08003002B02D0FD
:103A6800786800F024F9BB6903F00103012B07D142
:103A78003B6903F04003002B02D0786800F0C6F9D8
:103A8800BB6903F04003402B3AD13B6903F02003A4
:103A9800002B35D07B681B686E4A934201D16E4B70
:103AA80001E04FF040235A687B681B6869498B42E4
:103AB80001D1694B01E04FF0402322F060025A60C7
:103AC8007B681B685A687B681B6822F0A0025A60F2
:103AD8000023FB607B681B68DB68FB607B681B68F6
:103AE8009B68FB60FB687B68012283F841207B6848
:103AF8005B6C43F002027B685A647868FFF78AFEC1
:103B0800FB6903F00803082B40F0C3807B6903F0CE
:103B18002003002B00F0BD807B681B685A687B6817
:103B28001B6822F0A0025A607B681B68494A9342CE
:103B380001D1494B01E04FF040235A687B681B686C
:103B480044498B4201D1444B01E04FF0402322F01D
:103B580060025A600023BB607B681B689B68BB607F
:103B6800BB687B68012283F841207B685B6C43F06B
:103B780004027B685A647868FFF74CFE89E0BB69E9
:103B880003F00203022B07D13B6903F08003002BEB
:103B980002D0786800F0BCF8FB6903F00103012B40
:103BA80007D17B6903F04003002B02D0786800F04E
:103BB800FBF8FB6903F04003402B2FD17B6903F02E
:103BC8002003002B2AD07B681B685A687B681B6817
:103BD80022F060025A607B681B681E4A934201D13A
:103BE8001D4B01E04FF040235A687B681B68194958
:103BF8008B4201D1184B01E04FF0402322F0A00284
:103C08005A607B68012283F841207B685B6C43F033
:103C180002027B685A647868FFF7FCFDBB6903F011
:103C28000803082B36D13B6903F02003002B31D061
:103C38007B681B68074A934201D1074B01E04FF0AC
:103C480040235A687B681B6802498B4206D1024BA5
:103C580006E000BF00380040003400404FF0402329
:103C680022F0A0025A607B681B685A687B681B6850
:103C780022F060025A607B68012283F841207B6849
:103C88005B6C43F004027B685A647868FFF7C2FDF6
:103C980000E000BF00BF2037BD4680BD80B483B0C0
:103CA80000AF786000BF0C37BD4680BC704780B558
:103CB80082B000AF78607B685B6A991C7A68516251
:103CC8001A887B681B68DA607B685B8D9BB2013B56
:103CD8009AB27B685A857B685B8D9BB2002B13D1A7
:103CE8007B681B685A687B681B6822F0A0025A60D0
:103CF8007B685B8E9BB2002B06D17B68012283F820
:103D080041207868FFF7CAFF00BF0837BD4680BD6D
:103D180080B582B000AF78607B685B6A991C7A686E
:103D2800516219887B681B681D4A934201D11D4B5B
:103D380001E04FF040230A46DA607B685B8D9BB256
:103D4800013B9AB27B685A857B685B8D9BB2002BDE
:103D580021D17B681B68124A934201D1114B01E0C3
:103D68004FF040235A687B681B680D498B4201D18C
:103D78000C4B01E04FF0402322F0A0025A607B6810
:103D88005B8E9BB2002B06D17B68012283F8412011
:103D98007868FFF783FF00BF0837BD4680BD00BFC6
:103DA800003800400034004080B582B000AF786031
:103DB8007B681B68D8687B68DB6A991C7A68D16263
:103DC80082B21A807B685B8E9BB2013B9AB27B6899
:103DD8005A867B685B8E9BB2002B13D17B681B686D
:103DE8005A687B681B6822F060025A607B685B8DAA
:103DF8009BB2002B06D17B68012283F841207868AA
:103E0800FFF74CFF00BF0837BD4680BD80B582B0C4
:103E180000AF78607B681B68204A934201D1204B31
:103E280001E04FF04023D8687B68DB6A991C7A6808
:103E3800D16282B21A807B685B8E9BB2013B9AB2D8
:103E48007B685A867B685B8E9BB2002B21D17B688E
:103E58001B68124A934201D1114B01E04FF04023F5
:103E68005A687B681B680D498B4201D10C4B01E0F5
:103E78004FF0402322F060025A607B685B8D9BB252
:103E8800002B06D17B68012283F841207868FFF770
:103E980005FF00BF0837BD4680BD00BF00380040A1
:103EA8000034004080B586B000AF78607B68002B96
:103EB80001D101230BE37B681B680F2B03D9E82191
:103EC8009748FCF7E9FC7B681B6803F00103002BAB
:103ED80000F088807B685B68002B0DD07B685B688E
:103EE800B3F5803F08D07B685B68B3F5A02F03D09B
:103EF800ED218B48FCF7D0FC8A4B9B6803F00C0340
:103F0800042B0CD0874B9B6803F00C03082B12D1B1
:103F1800844B5B6803F48003B3F5800F0BD1814BAE
:103F28001B6803F40033002B5BD07B685B68002BB5
:103F380057D10123CBE27B685B68B3F5803F06D19C
:103F4800784B1B68774A43F4803313601DE07B6825
:103F58005B68B3F5A02F0CD1724B1B68714A43F410
:103F6800802313606F4B1B686E4A43F480331360E1
:103F78000BE06C4B1B686B4A23F480331360694B6E
:103F88001B68684A23F4802313607B685B68002BF6
:103F980013D0FCF7F9FE386108E0FCF7F5FE02469D
:103FA8003B69D31A642B01D9032390E25D4B1B684C
:103FB80003F40033002BF0D014E0FCF7E5FE386181
:103FC80008E0FCF7E1FE02463B69D31A642B01D9ED
:103FD80003237CE2534B1B6803F40033002BF0D11E
:103FE80000E000BF7B681B6803F00203002B79D058
:103FF8007B68DB68002B08D07B68DB68012B04D06A
:1040080040F21F114648FCF747FC7B681B691F2BD1
:1040180004D94FF490714248FCF73EFC414B9B6831
:1040280003F00C03002B0BD03E4B9B6803F00C03F2
:10403800082B1CD13B4B5B6803F48003002B16D183
:10404800384B1B6803F00203002B05D07B68DB6844
:10405800012B01D001233AE2324B1B6823F0F8020E
:104068007B681B69DB002F4913430B603AE07B68D0
:10407800DB68002B20D02C4B01221A60FCF784FE51
:10408800386108E0FCF780FE02463B69D31A022B30
:1040980001D903231BE2234B1B6803F00203002B07
:1040A800F0D0204B1B6823F0F8027B681B69DB000B
:1040B8001C4913430B6015E01B4B00221A60FCF7E8
:1040C80063FE386108E0FCF75FFE02463B69D31ADD
:1040D800022B01D90323FAE1124B1B6803F00203F8
:1040E800002BF0D17B681B6803F00803002B45D038
:1040F8007B685B69002B08D07B685B69012B04D067
:104108004FF4B0710648FCF7C7FB7B685B69002B6E
:104118001ED0064B01221A60FCF736FE386110E00B
:10412800089900080038024000004742800E4742C4
:10413800FCF72AFE02463B69D31A022B01D9032356
:10414800C5E15E4B5B6F03F00203002BF0D015E076
:104158005B4B00221A60FCF717FE386108E0FCF799
:1041680013FE02463B69D31A022B01D90323AEE1A1
:10417800524B5B6F03F00203002BF0D17B681B6886
:1041880003F00403002B00F0B0800023FB757B686C
:104198009B68002B0CD07B689B68012B08D07B6840
:1041A8009B68052B04D04FF4C6714648FCF774FB96
:1041B800424B1B6C03F08053002B0FD10023BB60D4
:1041C8003E4B1B6C3D4A43F0805313643B4B1B6CC6
:1041D80003F08053BB60BB680123FB753A4B1B6837
:1041E80003F48073002B18D1374B1B68364A43F40D
:1041F80080731360FCF7C8FD386108E0FCF7C4FD64
:1042080002463B69D31A022B01D903235FE12E4BE7
:104218001B6803F48073002BF0D07B689B68012B2C
:1042280006D1264B1B6F254A43F0010313671CE098
:104238007B689B68052B0CD1204B1B6F1F4A43F0F2
:10424800040313671D4B1B6F1C4A43F001031367DC
:104258000BE01A4B1B6F194A23F001031367174B26
:104268001B6F164A23F0040313677B689B68002BB7
:1042780015D0FCF789FD38610AE0FCF785FD024698
:104288003B69D31A41F28832934201D903231EE1D4
:104298000A4B1B6F03F00203002BEED01CE0FCF767
:1042A80073FD386112E0FCF76FFD02463B69D31AD3
:1042B80041F28832934209D9032308E100380240C9
:1042C800800E47420899000800700040824B1B6F1F
:1042D80003F00203002BE6D1FB7D012B05D17E4BB9
:1042E8001B6C7D4A23F0805313647B689B69002B09
:1042F8000CD07B689B69012B08D07B689B69022BDB
:1043080004D040F2CF117548FCF7C6FA7B689B6968
:10431800002B00F0DB80704B9B6803F00C03082B2C
:1043280000F0A5807B689B69022B40F089807B6840
:10433800DB69002B09D07B68DB69B3F5800F04D0FB
:104348004FF4EC716548FCF7A7FA7B681B6A3F2BB2
:1043580004D940F2D9116148FCF79EFA7B685B6A80
:10436800BF2B04D97B685B6AB3F5D87F04D94FF4B7
:10437800ED715A48FCF790FA7B689B6A022B10D0C3
:104388007B689B6A042B0CD07B689B6A062B08D041
:104398007B689B6A082B04D040F2DB114F48FCF77E
:1043A8007BFA7B68DB6A012B03D97B68DB6A0F2BFE
:1043B80004D94FF4EE714948FCF76EFA484B0022D5
:1043C8001A60FCF7E1FC386108E0FCF7DDFC024606
:1043D8003B69D31A022B01D9032378E03E4B1B68B3
:1043E80003F00073002BF0D17B68DA697B681B6AE5
:1043F8001A437B685B6A9B011A437B689B6A5B086C
:10440800013B1B041A437B68DB6A1B0632491343D2
:104418004B60334B01221A60FCF7B6FC386108E0A8
:10442800FCF7B2FC02463B69D31A022B01D90323DD
:104438004DE0294B1B6803F00073002BF0D045E0DA
:10444800274B00221A60FCF79FFC386108E0FCF754
:104458009BFC02463B69D31A022B01D9032336E0A1
:104468001D4B1B6803F00073002BF0D12EE07B6816
:104478009B69012B01D1012329E0174B5B68FB6085
:10448800FB6803F480027B68DB699A421CD1FB68F5
:1044980003F03F027B681B6A9A4215D1FA6847F617
:1044A800C07313407A68526A93420DD1FB6803F4D3
:1044B80040327B689B6A9A4206D1FB6803F07062BF
:1044C8007B68DB6A9A4201D0012300E0002318468A
:1044D8001837BD4680BD00BF003802400899000863
:1044E8006000474280B584B000AF786039607B686F
:1044F800002B01D1012374E17B681B68002B03D0DA
:104508007B681B680F2B04D940F251217B48FCF7CC
:10451800C3F93B68002B19D03B68012B16D03B68C8
:10452800022B13D03B68032B10D03B68042B0DD013
:104538003B68052B0AD03B68062B07D03B68072B46
:1045480004D040F252216D48FCF7A6F96C4B1B6869
:1045580003F00F033A689A420CD9694B3A68D2B211
:104568001A70674B1B6803F00F033A689A4201D030
:10457800012336E17B681B6803F00203002B49D056
:104588007B681B6803F00403002B05D05D4B9B6818
:104598005C4A43F4E05393607B681B6803F00803AC
:1045A800002B05D0574B9B68564A43F460439360F1
:1045B8007B689B68002B24D07B689B68802B20D06D
:1045C8007B689B68902B1CD07B689B68A02B18D0BD
:1045D8007B689B68B02B14D07B689B68C02B10D07D
:1045E8007B689B68D02B0CD07B689B68E02B08D03D
:1045F8007B689B68F02B04D040F275213F48FCF79C
:104608004BF9404B9B6823F0F0027B689B683D495F
:1046180013438B607B681B6803F00103002B59D0A0
:104628007B685B68002B10D07B685B68012B0CD023
:104638007B685B68022B08D07B685B68032B04D01F
:104648004FF41F712D48FCF727F97B685B68012B35
:1046580007D12C4B1B6803F40033002B19D101231D
:10466800BFE07B685B68022B03D07B685B68032B29
:1046780007D1244B1B6803F00073002B09D10123D9
:10468800AFE0204B1B6803F00203002B01D101238C
:10469800A7E01C4B9B6823F003027B685B68194901
:1046A80013438B60FCF770FBF8600AE0FCF76CFBC7
:1046B8000246FB68D31A41F28832934201D9032398
:1046C8008FE0104B9B6803F00C027B685B689B00D3
:1046D8009A42EBD10A4B1B6803F00F033A689A42DF
:1046E80012D2074B3A68D2B21A70054B1B6803F016
:1046F8000F033A689A4207D0012372E0089900082C
:10470800003C0240003802407B681B6803F0040349
:10471800002B25D07B68DB68002B18D07B68DB6812
:10472800B3F5805F13D07B68DB68B3F5A05F0ED06C
:104738007B68DB68B3F5C05F09D07B68DB68B3F5DD
:10474800E05F04D040F2BA212848FCF7A5F8284BCE
:104758009B6823F4E0527B68DB68254913438B6030
:104768007B681B6803F00803002B26D07B681B6955
:10477800002B18D07B681B69B3F5805F13D07B686A
:104788001B69B3F5A05F0ED07B681B69B3F5C05FEA
:1047980009D07B681B69B3F5E05F04D040F2C12102
:1047A8001248FCF779F8124B9B6823F460427B6847
:1047B8001B69DB000E4913438B6000F021F80246A9
:1047C8000B4B9B681B0903F00F030A49CB5C22FAC9
:1047D80003F3094A1360094B1B681846FCF792FA61
:1047E800002318461037BD4680BD00BF0899000851
:1047F80000380240E09A0008000000200400002071
:104808002DE9B04F94B000AF00237B640023FB6414
:1048180000233B640023BB647C4B9B6803F00C03C0
:10482800082B0DD0082B00F2E780002B02D0042BB8
:1048380003D0E1E0764BBB64E1E0764BBB64DEE09D
:10484800724B5B6803F03F037B64704B5B6803F457
:104858008003002B65D06D4B5B689B090022BB630E
:10486800FA63BB6BC3F308033B6300237B63D7E99D
:104878000C4522462B464FF000004FF0000159012D
:1048880041EAD261500102460B462146511A39616C
:10489800294663EB01037B614FF000024FF00003F0
:1048A800D7E904AB59468B01514643EA9163514617
:1048B8008A01D446B2EB0C08594663EB01094FF064
:1048C80000024FF000034FEAC90343EA58734FEA66
:1048D800C80290469946234618EB0303BB602B4653
:1048E80049EB0303FB604FF000024FF00003D7E9E8
:1048F800024529464B0220462946044643EAD4533A
:1049080001464A02104619467B6C0022BB62FA62D5
:10491800D7E90A23FBF73CFC02460B461346FB6427
:104928005CE03A4B5B689B09002218461146C0F3CD
:1049380008033B6200237B62D7E9088942464B465D
:104948004FF000004FF00001590141EAD2615001D7
:1049580002460B46C446B2EB0C0A404649468C4612
:1049680063EB0C0B4FF000024FF000034FEA8B1380
:1049780043EA9A634FEA8A12B2EB0A0463EB0B0527
:104988004FF000024FF00003EB0043EA5473E200DB
:1049980014461D460346E3183B600B4645EB0303EC
:1049A8007B604FF000024FF00003D7E9004529462D
:1049B8008B0220462946044643EA945301468A025C
:1049C800104619467B6C0022BB61FA61D7E90623C1
:1049D800FBF7DEFB02460B461346FB640B4B5B689A
:1049E8001B0C03F0030301335B003B64FA6C3B6C64
:1049F800B2FBF3F3BB6402E0054BBB6400BFBB6CC6
:104A080018465037BD46BDE8B08F00BF0038024099
:104A18000024F40000127A0080B400AF024B1B6837
:104A28001846BD4680BC70470000002080B500AF26
:104A3800FFF7F2FF0246054B9B689B0A03F007034A
:104A48000349CB5C22FA03F3184680BD00380240C4
:104A5800F09A000880B586B000AF786000237B61CB
:104A680000233B617B681B68002B03D07B681B68B5
:104A78000F2B04D940F6D9113448FBF70DFF7B689A
:104A88001B6803F00103002B05D17B681B6803F04A
:104A98000403002B66D07B68DB68012B03D97B6895
:104AA800DB68072B04D94FF41E612848FBF7F4FE96
:104AB8007B689B68BF2B04D97B689B68B3F5D87F5C
:104AC80004D940F6E1112148FBF7E6FE7B685B68F4
:104AD800012B03D97B685B683F2B04D940F6E311AF
:104AE8001A48FBF7D9FE1A4B00221A60FCF74CF95A
:104AF800786108E0FCF748F902467B69D31A022B73
:104B080001D90323B3E1134B1B6803F00063002BA7
:104B1800F0D17B685A687B689B689B011A437B6865
:104B2800DB681B070B491343C1F88430084B01228B
:104B38001A60FCF729F978610EE0FCF725F90246BE
:104B48007B69D31A022B07D9032390E164990008E3
:104B58006800474200380240884B1B6803F0006336
:104B6800002BEAD07B681B6803F00203002B00F0DF
:104B780073817B681B69B3F5807F00F0A6807B6832
:104B88001B69B3F5007F00F0A0807B681B697C4A35
:104B9800934200F09A807B681B697A4A934200F03E
:104BA80094807B681B69784A934200F08E807B680A
:104BB8001B69764A934200F088807B681B69744AB7
:104BC800934200F082807B681B69724A93427CD0D2
:104BD8007B681B69704A934277D07B681B696F4A70
:104BE800934272D07B681B696D4A93426DD07B6893
:104BF8001B696C4A934268D07B681B696A4A934276
:104C080063D07B681B69694A93425ED07B681B69E5
:104C1800674A934259D07B681B69664A934254D0CD
:104C28007B681B69644A93424FD07B681B69634A5F
:104C380093424AD07B681B69614A934245D07B689E
:104C48001B69604A934240D07B681B695E4A934265
:104C58003BD07B681B695D4A934236D07B681B69F1
:104C68005B4A934231D07B681B695A4A93422CD0E5
:104C78007B681B69584A934227D07B681B69574A4F
:104C8800934222D07B681B69554A93421DD07B68AA
:104C98001B69544A934218D07B681B69524A934255
:104CA80013D07B681B69514A93420ED07B681B69FD
:104CB8004F4A934209D07B681B694E4A934204D0FD
:104CC80040F612214C48FBF7E7FD0023FB602B4B15
:104CD8001B6C2A4A43F080531364284B1B6C03F067
:104CE8008053FB60FB68454B1B68444A43F4807360
:104CF8001360FCF749F8786108E0FCF745F80246CC
:104D08007B69D31A022B01D90323B0E03B4B1B6804
:104D180003F48073002BF0D0184B1B6F03F440731F
:104D28003B613B69002B73D07B681B6903F44073BC
:104D38003A699A426CD0114B1B6F23F440733B6164
:104D48002F4B01221A602E4B00221A600B4A3B6936
:104D580013670A4B1B6F03F00103012B58D1FCF7B3
:104D680013F878614EE0FCF70FF802467B69D31A16
:104D780041F28832934245D9032378E00038024053
:104D88000003020000030300000304000003050001
:104D980000030600000307000003080000030900E1
:104DA80000030A0000030B0000030C0000030D00C1
:104DB80000030E0000030F000003100000031100A1
:104DC8000003120000031300000314000003150081
:104DD8000003160000031700000318000003190061
:104DE80000031A0000031B0000031C0000031D0041
:104DF80000031E0000031F006499000800700040B3
:104E0800400E47421C4B1B6F03F00203002BAAD035
:104E18007B681B6903F44073B3F5407F0DD1164BD3
:104E28009B6823F4F8127B681B6923F0704323F412
:104E38004073114913438B6005E00F4B9B680E4A82
:104E480023F4F81393600C4B1A6F7B681B69C3F348
:104E58000B03094913430B677B681B6803F00803BE
:104E6800002B03D07B681A7D044B1A600023184678
:104E78001837BD4680BD00BF00380240E0114742E8
:104E880080B487B000AF786000237B6100233B616A
:104E98000023FB600023BB607B68012B40D1234BC0
:104EA8009B6803F40003FB60FB68002B05D0FB68DC
:104EB800012B31D11E4B7B6131E01C4B5B6803F445
:104EC8008003B3F5800F09D1184BD3F8843003F071
:104ED8003F03184AB2FBF3F33B6108E0134BD3F8E6
:104EE800843003F03F03144AB2FBF3F33B610F4BEA
:104EF800D3F884309B09C3F308023B6902FB03F330
:104F0800BB600A4BD3F884301B0F03F00703BA6861
:104F1800B2FBF3F37B6102E000237B6100BF00BFBB
:104F28007B6918461C37BD4680BC70470038024074
:104F38000080BB0000127A000024F40080B582B023
:104F480000AF78607B68002B01D1012313E17B68F7
:104F58001B688B4A934218D07B681B68894A934226
:104F680013D07B681B68884A93420ED07B681B6805
:104F7800864A934209D07B681B68854A934204D0CD
:104F88004FF4A1718348FBF787FC7B685B68002BB3
:104F980009D07B685B68B3F5827F04D040F2431187
:104FA8007C48FBF779FC7B689B68002B0ED07B68FC
:104FB8009B68B3F5806F09D07B689B68B3F5004F99
:104FC80004D04FF4A2717348FBF766FC7B68DB687A
:104FD800B3F5006F08D07B68DB68002B04D040F283
:104FE80045116C48FBF758FC7B689B69B3F5007F5B
:104FF8000DD07B689B69002B09D07B689B69B3F552
:10500800802F04D04FF4A3716248FBF745FC7B68FE
:10501800DB69002B20D07B68DB69082B1CD07B6800
:10502800DB69102B18D07B68DB69182B14D07B68E0
:10503800DB69202B10D07B68DB69282B0CD07B68C0
:10504800DB69302B08D07B68DB69382B04D040F251
:1050580047115048FBF720FC7B681B6A002B08D0DF
:105068007B681B6A802B04D04FF4A4714948FBF776
:1050780013FC7B685B6A002B08D07B685B6A102B8B
:1050880004D040F249114348FBF706FC7B685B6A91
:10509800002B19D17B681B69002B08D07B681B6922
:1050A800022B04D04FF4A6713A48FBF7F5FB7B6856
:1050B8005B69002B08D07B685B69012B04D040F248
:1050C8004D113448FBF7E8FB7B6800229A627B6845
:1050D80093F85130DBB2002B06D17B68002283F8AD
:1050E80050207868FBF718FC7B68022283F851206F
:1050F8007B681B681A687B681B6822F040021A608C
:105108007B685A687B689B681A437B68DB681A432C
:105118007B681B691A437B685B691A437B689B69D8
:1051280003F400731A437B68DB691A437B681B6AC4
:1051380042EA03017B689A6A7B681B680A431A6023
:105148007B689B691B0C03F004017B685A6A7B68C7
:105158001B680A435A607B681B68DA697B681B68AE
:1051680022F40062DA617B6800225A657B680122BA
:1051780083F85120002318460837BD4680BD00BF7C
:105188000030014000380040003C0040003401403D
:1051980000500140C499000880B582B000AF786023
:1051A8007B68002B01D1012383E07B681B68434A9D
:1051B800934227D07B681B68B3F1804F22D07B686D
:1051C8001B683F4A93421DD07B681B683D4A934247
:1051D80018D07B681B683C4A934213D07B681B68D5
:1051E8003A4A93420ED07B681B68394A934209D0E9
:1051F8007B681B68374A934204D04FF4897136485C
:10520800FBF74AFB7B689B68002B14D07B689B6884
:10521800102B10D07B689B68202B0CD07B689B6878
:10522800402B08D07B689B68602B04D040F2131198
:105238002948FBF731FB7B681B69002B0ED07B6884
:105248001B69B3F5807F09D07B681B69B3F5007FC4
:1052580004D04FF48A712048FBF71EFB7B689B69DA
:10526800002B08D07B689B69802B04D040F2151175
:105278001948FBF711FB7B6893F83D30DBB2002B34
:1052880006D17B68002283F83C207868FBF7D4FCC1
:105298007B68022283F83D207B681A687B680433A8
:1052A8001946104600F0B2FC7B68012283F83D20C5
:1052B800002318460837BD4680BD00BF00000140E6
:1052C8000004004000080040000C0040004001407D
:1052D8000044014000480140209A000880B584B08D
:1052E80000AF78607B681B68244A934227D07B68AC
:1052F8001B68B3F1804F22D07B681B68204A934219
:105308001DD07B681B681F4A934218D07B681B68B6
:105318001D4A934213D07B681B681C4A93420ED0E7
:105328007B681B681A4A934209D07B681B68194A34
:10533800934204D040F2B9111748FBF7ADFA7B68E5
:105348001B68DA687B681B6842F00102DA607B68D8
:105358001B689B6803F00703FB60FB68062B07D0FC
:105368007B681B681A687B681B6842F001021A6038
:10537800002318461037BD4680BD00BF000001401D
:105388000004004000080040000C004000400140BC
:105398000044014000480140209A000880B582B0CE
:1053A80000AF78607B681B681B6903F00203022B5F
:1053B80022D17B681B68DB6803F00203022B1BD138
:1053C8007B681B686FF002021A617B6801221A77FA
:1053D8007B681B689B6903F00303002B03D0786884
:1053E80000F0F9FB05E0786800F0ECFB786800F065
:1053F800FBFB7B6800221A777B681B681B6903F03C
:105408000403042B22D17B681B68DB6803F00403C8
:10541800042B1BD17B681B686FF004021A617B6840
:1054280002221A777B681B689B6903F44073002B80
:1054380003D0786800F0CFFB05E0786800F0C2FB85
:10544800786800F0D1FB7B6800221A777B681B68BC
:105458001B6903F00803082B22D17B681B68DB68F3
:1054680003F00803082B1BD17B681B686FF0080248
:105478001A617B6804221A777B681B68DB6903F072
:105488000303002B03D0786800F0A5FB05E07868DB
:1054980000F098FB786800F0A7FB7B6800221A7779
:1054A8007B681B681B6903F01003102B22D17B68F3
:1054B8001B68DB6803F01003102B1BD17B681B688B
:1054C8006FF010021A617B6808221A777B681B68E4
:1054D800DB6903F44073002B03D0786800F07BFB92
:1054E80005E0786800F06EFB786800F07DFB7B686B
:1054F80000221A777B681B681B6903F00103012BE4
:105508000ED17B681B68DB6803F00103012B07D110
:105518007B681B686FF001021A617868FBF7EEF888
:105528007B681B681B6903F08003802B0ED17B68A6
:105538001B68DB6803F08003802B07D17B681B683E
:105548006FF080021A61786800F03BFD7B681B6889
:105558001B6903F04003402B0ED17B681B68DB6896
:1055680003F04003402B07D17B681B686FF04002B3
:105578001A61786800F041FB7B681B681B6903F0BF
:105588002003202B0ED17B681B68DB6803F0200307
:10559800202B07D17B681B686FF020021A6178689E
:1055A80000F006FD00BF0837BD4680BD80B584B059
:1055B80000AF786039607B6893F83C30012B01D1EB
:1055C8000223EFE27B68012283F83C207B680222F9
:1055D80083F83D203B681B68B3F5805F29D03B68A2
:1055E8001B68B3F5005F24D03B681B68002B20D0F4
:1055F8003B681B68102B1CD03B681B68202B18D0FD
:105608003B681B68302B14D03B681B68402B10D0BC
:105618003B681B68502B0CD03B681B68602B08D07C
:105628003B681B68702B04D041F28B117C48FBF758
:1056380033F97B681B689B68FB60FB6823F0770382
:10564800FB60FB6823F47F43FB607B681B68FA6898
:105658009A603B681B68B3F5005F00F0F180B3F512
:10566800005F00F29382B3F5805F2DD0B3F5805FC1
:1056780000F28C82702B5DD0702B00F28782602B39
:1056880000F0A081602B00F28182502B00F0448151
:10569800502B00F27B82402B00F0F681402B00F269
:1056A8007582302B00F04682302B00F26F82202B5F
:1056B80000F04082202B00F26982002B00F03A8231
:1056C800102B00F0378261E27B681B68554A9342D1
:1056D80000F05E827B681B68B3F1804F00F058824F
:1056E8007B681B68504A934200F052827B681B68B3
:1056F8004E4A934200F04C827B681B684C4A9342A6
:1057080000F046827B681B684A4A934200F0408258
:105718007B681B68484A934200F03A827B681B68A2
:10572800464A934200F0348241F297113C48FBF715
:10573800B3F82DE27B681B683A4A93421DD07B6818
:105748001B68B3F1804F18D07B681B68364A9342B8
:1057580013D07B681B68354A93420ED07B681B6860
:10576800334A934209D07B681B68324A934204D07B
:1057780041F29E112A48FBF78FF83B689B68002B83
:1057880013D03B689B68B3F5805F0ED03B689B687D
:10579800B3F5005F09D03B689B68B3F5405F04D060
:1057A80041F2A1111E48FBF777F83B685B68B3F537
:1057B800004F14D03B685B68002B10D03B685B68D7
:1057C800002B0CD03B685B68022B08D03B685B68F9
:1057D8000A2B04D041F2A2111148FBF75DF83B688F
:1057E800DB680F2B04D941F2A3110D48FBF754F8DD
:1057F8007B6818683B6899683B685A683B68DB684F
:1058080000F0F9FA7B681B689B68FB60FB6843F053
:105818007703FB607B681B68FA689A60B9E100BF90
:10582800209A0008000001400004004000080040E1
:10583800000C004000400140004401400048014085
:105848007B681B688A4A934218D07B681B68B3F14F
:10585800804F13D07B681B68864A93420ED07B68C2
:105868001B68854A934209D07B681B68834A934228
:1058780004D041F2B6118248FBF70EF83B689B68EA
:10588800002B13D03B689B68B3F5805F0ED03B6854
:105898009B68B3F5005F09D03B689B68B3F5405F30
:1058A80004D041F2B9117648FAF7F6FF3B685B6815
:1058B800B3F5004F14D03B685B68002B10D03B68F1
:1058C8005B68002B0CD03B685B68022B08D03B68F8
:1058D8005B680A2B04D041F2BA116948FAF7DCFF79
:1058E8003B68DB680F2B04D941F2BB116448FAF717
:1058F800D3FF7B6818683B6899683B685A683B68BF
:10590800DB6800F078FA7B681B689A687B681B681C
:1059180042F480429A603CE17B681B68544A934297
:105928001DD07B681B68B3F1804F18D07B681B685B
:10593800504A934213D07B681B684F4A93420ED05B
:105948007B681B684D4A934209D07B681B684D4AA7
:10595800934204D041F2CA114948FAF79DFF3B68C7
:105968005B68B3F5004F14D03B685B68002B10D020
:105978003B685B68002B0CD03B685B68022B08D047
:105988003B685B680A2B04D041F2CD113C48FAF71A
:1059980083FF3B68DB680F2B04D941F2CE113848EE
:1059A800FAF77AFF7B6818683B6859683B68DB68D8
:1059B8001A4600F0A9F97B681B685021184600F0C8
:1059C80000FAE6E07B681B68294A93421DD07B6891
:1059D8001B68B3F1804F18D07B681B68254A934237
:1059E80013D07B681B68244A93420ED07B681B68DF
:1059F800224A934209D07B681B68224A934204D00A
:105A080041F2DA111E48FAF747FF3B685B68B3F5C5
:105A1800004F14D03B685B68002B10D03B685B6874
:105A2800002B0CD03B685B68022B08D03B685B6896
:105A38000A2B04D041F2DD111148FAF72DFF3B681B
:105A4800DB680F2B04D941F2DE110D48FAF724FF69
:105A58007B6818683B6859683B68DB681A4600F041
:105A680081F97B681B686021184600F0AAF990E06C
:105A7800000001400004004000080040000C004005
:105A8800209A0008004001407B681B68474A9342FF
:105A98001DD07B681B68B3F1804F18D07B681B68EA
:105AA800434A934213D07B681B68424A93420ED004
:105AB8007B681B68404A934209D07B681B683F4A51
:105AC800934204D041F2EA113D48FAF7E5FE3B68FB
